:020000040800F2
:100000000050002001400008393C0008413C000835
:10001000493C0008513C0008593C00080000000021
:10002000000000000000000000000000613C00082B
:100030006D3C000800000000793C0008853C000889
:10004000494000084940000849400008494000086C
:10005000494000084940000849400008494000085C
:10006000494000084940000849400008494000084C
:1000700049400008913C00084940000849400008F8
:10008000494000084940000849400008494000082C
:10009000494000084940000849400008494000081C
:1000A000494000084940000849400008494000080C
:1000B00049400008494000084940000849400008FC
:1000C00049400008494000084940000849400008EC
:1000D00049400008A53C0008494000084940000884
:1000E000494000084940000849400008000000005D
:1000F0000000000000000000000000000000000000
:0C01000000000000000000005FF808F1A3
:1001100010B5054C237833B9044B13B10448AFF341
:1001200000800123237010BD400200200000000069
:1001300074A4000808B5034B1BB103490348AFF38F
:10014000008008BD000000004402002074A40008E4
:10015000034613F8012B002AFBD1181A0138704707
:1001600081F0004102E000BF83F0004330B54FEA68
:1001700041044FEA430594EA050F08BF90EA020FD5
:100180001FBF54EA000C55EA020C7FEA645C7FEA68
:10019000655C00F0E2804FEA5454D4EB5555B8BF8B
:1001A0006D420CDD2C4480EA020281EA030382EAFC
:1001B000000083EA010180EA020281EA0303362D8E
:1001C00088BF30BD11F0004F4FEA01314FF4801C61
:1001D0004CEA113102D0404261EB410113F0004F73
:1001E0004FEA03334CEA133302D0524263EB43032A
:1001F00094EA050F00F0A780A4F10104D5F1200EC8
:100200000DDB02FA0EFC22FA05F2801841F1000122
:1002100003FA0EF2801843FA05F359410EE0A5F1F6
:1002200020050EF1200E012A03FA0EFC28BF4CF027
:10023000020C43FA05F3C01851EBE37101F00045DD
:1002400007D54FF0000EDCF1000C7EEB00006EEBEA
:100250000101B1F5801F1BD3B1F5001F0CD3490874
:100260005FEA30004FEA3C0C04F101044FEA4452CB
:1002700012F5800F80F09A80BCF1004F08BF5FEA52
:10028000500C50F1000041EB045141EA050130BD32
:100290005FEA4C0C404141EB0101013C28BFB1F544
:1002A000801FE9D291F0000F04BF01460020B1FA8F
:1002B00081F308BF2033A3F10B03B3F120020CDA62
:1002C0000C3208DD02F1140CC2F10C0201FA0CF040
:1002D00021FA02F10CE002F11402D8BFC2F1200CA5
:1002E00001FA02F120FA0CFCDCBF41EA0C0190405B
:1002F000E41AA2BF01EB0451294330BD6FEA0404A4
:100300001F3C1CDA0C340EDC04F11404C4F120028E
:1003100020FA04F001FA02F340EA030021FA04F3A0
:1003200045EA030130BDC4F10C04C4F1200220FAF7
:1003300002F001FA04F340EA0300294630BD21FA35
:1003400004F0294630BD94F0000F83F4801306BFFB
:1003500081F480110134013D4EE77FEA645C18BFEF
:100360007FEA655C29D094EA050F08BF90EA020F86
:1003700005D054EA000C04BF1946104630BD91EA7E
:10038000030F1EBF0021002030BD5FEA545C05D181
:100390004000494128BF41F0004130BD14F58004C0
:1003A0003CBF01F5801130BD01F0004545F0FE4134
:1003B00041F470014FF0000030BD7FEA645C1ABF69
:1003C000194610467FEA655C1CBF0B46024650EAA0
:1003D000013406BF52EA033591EA030F41F40021CC
:1003E00030BD00BF90F0000F04BF0021704730B552
:1003F0004FF4806404F132044FF000054FF0000127
:1004000050E700BF90F0000F04BF0021704730B5E7
:100410004FF4806404F1320410F0004548BF4042BC
:100420004FF000013EE700BF42004FEAE2014FEA11
:1004300031014FEA02701FBF12F07F4393F07F4FEC
:1004400081F06051704732F07F4208BF704793F0EF
:100450007F4F04BF41F40021704730B54FF4607402
:1004600001F0004521F000411CE700BF50EA010205
:1004700008BF704730B54FF000050AE050EA0102AE
:1004800008BF704730B511F0004502D5404261EB1E
:1004900041014FF4806404F132045FEA915C3FF45F
:1004A000D8AE4FF003025FEADC0C18BF03325FEAFC
:1004B000DC0C18BF033202EBDC02C2F1200300FAAD
:1004C00003FC20FA02F001FA03FE40EA0E0021FAD2
:1004D00002F11444BDE600BF70B54FF0FF0C4CF4C0
:1004E000E06C1CEA11541DBF1CEA135594EA0C0F72
:1004F00095EA0C0F00F0DEF82C4481EA030621EAAD
:100500004C5123EA4C5350EA013518BF52EA0335E7
:1005100041F4801143F4801338D0A0FB02CE4FF099
:100520000005E1FB02E506F00042E0FB03E54FF0C9
:100530000006E1FB03569CF0000F18BF4EF0010EC1
:10054000A4F1FF04B6F5007F64F5407404D25FEABD
:100550004E0E6D4146EB060642EAC62141EA555170
:100560004FEAC52040EA5E504FEACE2EB4F1FD0CB2
:1005700088BFBCF5E06F1ED8BEF1004F08BF5FEA30
:10058000500E50F1000041EB045170BD06F00046E2
:1005900046EA010140EA020081EA0301B4EB5C048F
:1005A000C2BFD4EB0C0541EA045170BD41F4801187
:1005B0004FF0000E013C00F3AB8014F1360FDEBFAC
:1005C000002001F0004170BDC4F10004203C35DA88
:1005D0000C341BDC04F11404C4F1200500FA05F30B
:1005E00020FA04F001FA05F240EA020001F00042AC
:1005F00021F0004110EBD37021FA04F642EB060122
:100600005EEA430E08BF20EAD37070BDC4F10C044B
:10061000C4F1200500FA04F320FA05F001FA04F20F
:1006200040EA020001F0004110EBD37041F10001FB
:100630005EEA430E08BF20EAD37070BDC4F1200506
:1006400000FA05F24EEA020E20FA04F301FA05F26E
:1006500043EA020321FA04F001F0004121FA04F216
:1006600020EA020000EBD3705EEA430E08BF20EAE6
:10067000D37070BD94F0000F0FD101F00046400020
:1006800041EB010111F4801F08BF013CF7D041EAA2
:10069000060195F0000F18BF704703F000465200A6
:1006A00043EB030313F4801F08BF013DF7D043EA77
:1006B0000603704794EA0C0F0CEA135518BF95EA2D
:1006C0000C0F0CD050EA410618BF52EA4306D1D1B4
:1006D00081EA030101F000414FF0000070BD50EAD3
:1006E000410606BF1046194652EA430619D094EA5D
:1006F0000C0F02D150EA013613D195EA0C0F05D147
:1007000052EA03361CBF104619460AD181EA03019A
:1007100001F0004141F0FE4141F470014FF0000052
:1007200070BD41F0FE4141F4780170BD70B54FF0ED
:10073000FF0C4CF4E06C1CEA11541DBF1CEA13556D
:1007400094EA0C0F95EA0C0F00F0A7F8A4EB05044F
:1007500081EA030E52EA03354FEA013100F0888046
:100760004FEA03334FF0805545EA131343EA12630F
:100770004FEA022245EA111545EA10654FEA0026C4
:100780000EF000419D4208BF964244F1FD0404F57D
:10079000407402D25B084FEA3202B61A65EB0305D9
:1007A0005B084FEA32024FF480104FF4002CB6EB96
:1007B000020E75EB030E22BFB61A754640EA0C0016
:1007C0005B084FEA3202B6EB020E75EB030E22BF56
:1007D000B61A754640EA5C005B084FEA3202B6EB97
:1007E000020E75EB030E22BFB61A754640EA9C0056
:1007F0005B084FEA3202B6EB020E75EB030E22BF26
:10080000B61A754640EADC0055EA060E18D04FEAE3
:10081000051545EA16754FEA06164FEAC30343EA83
:1008200052734FEAC2025FEA1C1CC0D111F4801F50
:100830000BD141EA00014FF000004FF0004CB6E749
:1008400011F4801F04BF01430020B4F1FD0C88BFE8
:10085000BCF5E06F3FF6AFAEB5EB030C04BFB6EBF3
:10086000020C5FEA500C50F1000041EB045170BDE6
:100870000EF0004E4EEA113114EB5C04C2BFD4EB13
:100880000C0541EA045170BD41F480114FF0000E97
:10089000013C90E645EA060E8DE60CEA135594EA13
:1008A0000C0F08BF95EA0C0F3FF43BAF94EA0C0F16
:1008B0000AD150EA01347FF434AF95EA0C0F7FF48B
:1008C00025AF104619462CE795EA0C0F06D152EADF
:1008D00003353FF4FDAE1046194622E750EA4106C3
:1008E00018BF52EA43067FF4C5AE50EA41047FF4D4
:1008F0000DAF52EA43057FF4EBAE12E74FF0FF3C39
:1009000006E000BF4FF0010C02E000BF4FF0010C09
:100910004DF804CD4FEA410C7FEA6C5C4FEA430C82
:1009200018BF7FEA6C5C1BD001B050EA410C0CBFD1
:1009300052EA430C91EA030F02BF90EA020F002033
:10094000704710F1000F91EA030F58BF994208BF9A
:1009500090422CBFD8176FEAE37040F00100704757
:100960004FEA410C7FEA6C5C02D150EA013C07D1AE
:100970004FEA430C7FEA6C5CD6D152EA033CD3D0F9
:100980005DF8040B704700BF8446104662468C46F3
:100990001946634600E000BF01B5FFF7B7FF002826
:1009A00048BF10F1000F01BD4DF808EDFFF7F4FF4F
:1009B0000CBF012000205DF808FB00BF4DF808EDDA
:1009C000FFF7EAFF34BF012000205DF808FB00BFFD
:1009D0004DF808EDFFF7E0FF94BF012000205DF81F
:1009E00008FB00BF4DF808EDFFF7CEFF94BF0120D4
:1009F00000205DF808FB00BF4DF808EDFFF7C4FFCD
:100A000034BF012000205DF808FB00BF4FEA410C15
:100A10007FEA6C5C02D150EA013C0AD14FEA430CF8
:100A20007FEA6C5C02D152EA033C02D14FF0000035
:100A300070474FF0010070474FEA410212F5001273
:100A400015D211D56FF47873B3EB625212D94FEA15
:100A5000C12343F0004343EA505311F0004F23FAFF
:100A600002F018BF404270474FF00000704750EA54
:100A7000013005D111F0004008BF6FF00040704711
:100A80004FF00000704700BF4FEA4102B2F1E0436F
:100A900024BFB3F5001CDCF1FE5C0DD901F0004C65
:100AA0004FEAC0024CEA5070B2F1004F40EB8300B5
:100AB00008BF20F00100704711F0804F21D113F1E1
:100AC0003872BCBF01F00040704741F480114FEA1A
:100AD0005252C2F11802C2F1200C10FA0CF320FAA3
:100AE00002F018BF40F001004FEAC1234FEAD323C0
:100AF00003FA0CFC40EA0C0023FA02F34FEA43032A
:100B0000CCE77FEA625307D150EA01331EBF4FF0B2
:100B1000FE4040F44000704701F0004040F0FE40CD
:100B200040F40000704700BF80F0004002E000BFCA
:100B300081F0004142001FBF5FEA410392EA030FC8
:100B40007FEA226C7FEA236C6AD04FEA1262D2EB12
:100B50001363C1BFD218414048404140B8BF5B4217
:100B6000192B88BF704710F0004F40F4000020F0B0
:100B70007F4018BF404211F0004F41F4000121F0C6
:100B80007F4118BF494292EA030F3FD0A2F1010210
:100B900041FA03FC10EB0C00C3F1200301FA03F14E
:100BA00000F0004302D5494260EB4000B0F5000F71
:100BB00013D3B0F1807F06D340084FEA310102F130
:100BC0000102FE2A51D2B1F1004F40EBC25008BFE2
:100BD00020F0010040EA03007047490040EB0000AC
:100BE000013A28BFB0F5000FEDD2B0FA80FCACF1AD
:100BF000080CB2EB0C0200FA0CF0AABF00EBC250DA
:100C000052421843BCBFD0401843704792F0000FC7
:100C100081F4000106BF80F400000132013BB5E71A
:100C20004FEA41037FEA226C18BF7FEA236C21D090
:100C300092EA030F04D092F0000F08BF08467047F5
:100C400090EA010F1CBF0020704712F07F4F04D1C3
:100C5000400028BF40F00040704712F100723CBFD6
:100C600000F50000704700F0004343F0FE4040F400
:100C7000000070477FEA226216BF08467FEA2363BE
:100C80000146420206BF5FEA412390EA010F40F4A9
:100C9000800070474FF0000304E000BF10F00043F5
:100CA00048BF40425FEA000C08BF704743F09643DC
:100CB00001464FF000001CE050EA010208BF7047F7
:100CC0004FF000030AE000BF50EA010208BF70477E
:100CD00011F0004302D5404261EB41015FEA010C93
:100CE00002BF84460146002043F0B64308BFA3F18B
:100CF0008053A3F50003BCFA8CF2083AA3EBC2536D
:100D000010DB01FA02FC634400FA02FCC2F120028B
:100D1000BCF1004F20FA02F243EB020008BF20F0C2
:100D20000100704702F1200201FA02FCC2F1200228
:100D300050EA4C0021FA02F243EB020008BF20EA1D
:100D4000DC7070474FF0FF0C1CEAD0521EBF1CEA4B
:100D5000D15392EA0C0F93EA0C0F6FD01A4480EA39
:100D6000010C400218BF5FEA41211ED04FF0006322
:100D700043EA501043EA5111A0FB01310CF000404E
:100D8000B1F5000F3EBF490041EAD3715B0040EA74
:100D9000010062F17F02FD2A1DD8B3F1004F40EB44
:100DA000C25008BF20F00100704790F0000F0CF017
:100DB000004C08BF49024CEA502040EA51207F3ADB
:100DC000C2BFD2F1FF0340EAC250704740F40000B6
:100DD0004FF00003013A5DDC12F1190FDCBF00F0A7
:100DE00000407047C2F10002410021FA02F1C2F155
:100DF000200200FA02FC5FEA310040F1000053EAF1
:100E00004C0308BF20EADC70704792F0000F00F03E
:100E1000004C02BF400010F4000F013AF9D040EA44
:100E20000C0093F0000F01F0004C02BF490011F4D8
:100E3000000F013BF9D041EA0C018FE70CEAD153D6
:100E400092EA0C0F18BF93EA0C0F0AD030F0004C56
:100E500018BF31F0004CD8D180EA010000F000400A
:100E6000704790F0000F17BF90F0004F084691F0C8
:100E7000000F91F0004F14D092EA0C0F01D1420202
:100E80000FD193EA0C0F03D14B0218BF084608D1CB
:100E900080EA010000F0004040F0FE4040F4000015
:100EA000704740F0FE4040F4400070474FF0FF0CA8
:100EB0001CEAD0521EBF1CEAD15392EA0C0F93EAEF
:100EC0000C0F69D0A2EB030280EA010C49024FEA41
:100ED000402037D04FF0805343EA111143EA1013FA
:100EE0000CF000408B4238BF5B0042F17D024FF4B2
:100EF000000C8B4224BF5B1A40EA0C00B3EB510F8D
:100F000024BFA3EB510340EA5C00B3EB910F24BF75
:100F1000A3EB910340EA9C00B3EBD10F24BFA3EBFA
:100F2000D10340EADC001B0118BF5FEA1C1CE0D1C2
:100F3000FD2A3FF650AF8B4240EBC25008BF20F075
:100F4000010070470CF0004C4CEA50207F32C2BFC9
:100F5000D2F1FF0340EAC250704740F400004FF066
:100F60000003013A37E792F0000F00F0004C02BF97
:100F7000400010F4000F013AF9D040EA0C0093F061
:100F8000000F01F0004C02BF490011F4000F013BBB
:100F9000F9D041EA0C0195E70CEAD15392EA0C0F23
:100FA00008D142027FF47DAF93EA0C0F7FF470AF5B
:100FB000084676E793EA0C0F04D14B023FF44CAF9E
:100FC00008466EE730F0004C18BF31F0004CCAD133
:100FD00030F000427FF45CAF31F000437FF43CAF6F
:100FE0005FE700BF42000ED2B2F1FE4F0BD34FF0CD
:100FF0009E03B3EB126209D44FEA002343F000438F
:1010000023FA02F070474FF00000704712F1610FB1
:1010100001D1420202D14FF0FF3070474FF0000083
:10102000704700BF80B500AF00224FF480610248D6
:1010300003F04FFD00BF80BD000C014080B500AF44
:1010400001224FF48061024803F043FD00BF80BDE0
:10105000000C014080B500AF00220221064803F0D9
:1010600038FD052003F054F801220221024803F064
:1010700030FD00BF80BD00BF000C014080B582B0D4
:1010800000AF0346FB7100220121074803F021FD58
:10109000F91D4FF0FF330122044804F0C3FE00BFE6
:1010A0000837BD4680BD00BF000C01405C0D00202C
:1010B00080B584B000AF7860396001220121114809
:1010C00003F007FD15E03B68B3F5004F28BF4FF470
:1010D0000043FB81FA894FF0FF3379680A4804F036
:1010E000A1FEFB897A6813447B60FB893A68D31AB6
:1010F0003B603B68002BE6D100BF00BF1037BD4608
:1011000080BD00BF000C01405C0D002090B585B093
:1011100000AF0446084611461A462346FB800346A4
:10112000BB800B467B8013463B802A20FFF7A6FF3F
:10113000FB881B0A9BB2DBB23B73FB88DBB27B7381
:101140007B881B0A9BB2DBB2BB737B88DBB2FB7371
:1011500007F10C0304211846FFF7AAFF2B20FFF725
:101160008DFFBB881B0A9BB2DBB23B72BB88DBB234
:101170007B723B881B0A9BB2DBB2BB723B88DBB243
:10118000FB7207F1080304211846FFF791FF2C209A
:10119000FFF774FF00BF1437BD4690BD90B59BB0FC
:1011A00000AFFFF73FFFFFF755FF0120FFF766FF96
:1011B0004FF47A7002F0ACFFCB20FFF75FFF874A55
:1011C00007F1600392E8030018600433197007F117
:1011D000600305211846FFF76BFFCF20FFF74EFF96
:1011E0007F4A07F15C031268114619800233120C22
:1011F0001A7007F15C0303211846FFF759FFE82036
:10120000FFF73CFF774A07F158031268114619802F
:101210000233120C1A7007F1580303211846FFF726
:1012200047FFEA20FFF72AFF0023A7F8543007F111
:10123000540302211846FFF73BFFED20FFF71EFF86
:10124000694B3B6507F1500304211846FFF730FF57
:10125000F720FFF713FF202387F84C3007F14C03EA
:1012600001211846FFF724FFC020FFF707FF2323C3
:1012700087F8483007F1480301211846FFF718FFA7
:10128000C120FFF7FBFE102387F8443007F1440329
:1012900001211846FFF70CFFC520FFF7EFFE42F6CD
:1012A0003E03A7F8403007F1400302211846FFF73C
:1012B000FFFEC720FFF7E2FE862387F83C3007F1E8
:1012C0003C0301211846FFF7F3FE3620FFF7D6FE58
:1012D000482387F8383007F1380301211846FFF713
:1012E000E7FE3A20FFF7CAFE552387F8343007F1AE
:1012F000340301211846FFF7DBFEB120FFF7BEFEE5
:101300004FF4C0533B8607F1300302211846FFF724
:10131000CFFEB620FFF7B2FE344A07F12C03126865
:10132000114619800233120C1A7007F12C030321A5
:101330001846FFF7BDFEF220FFF7A0FE002387F856
:10134000283007F1280301211846FFF7B1FE2620B7
:10135000FFF794FE012387F8243007F124030121CD
:101360001846FFF7A5FEE020FFF788FE204B07F1A7
:1013700014040FCB07C4238002341B0C237007F125
:1013800014030F211846FFF793FEE120FFF776FEC6
:10139000184B3C1D0FCB07C4238002341B0C237059
:1013A0003B1D0F211846FFF783FE1120FFF766FE55
:1013B000782002F0ADFE2920FFF760FE3620FFF70F
:1013C0005DFE48233B703B4601211846FFF770FE47
:1013D000FFF734FE00BF6C37BD4690BD90A40008F7
:1013E00098A400089CA4000864031281A0A400082B
:1013F000A4A40008B4A4000882B080B588B000AFEF
:10140000FB620346FB800B46BB801346FB7097F8DC
:101410002C301A46FB8813449BB2013B9AB297F8D2
:101420002D301946BB880B449BB2013B9BB2B98857
:10143000F888FFF76BFE0023FB6141E03A6BFB7815
:10144000203B97F82D1001FB03F31946FB690B4471
:101450005B0013441B887B610023BB6127E07A6932
:10146000BB6902FA03F303F40043002B0ED0BB8EDA
:101470001B0A9BB2DBB23B74BB8EDBB27B7407F101
:10148000100302211846FFF713FE0DE03B8F1B0AE5
:101490009BB2DBB23B733B8FDBB27B7307F10C0378
:1014A00002211846FFF704FEBB690133BB6197F8C0
:1014B0002C301A46BB699342D1D3FB690133FB61DF
:1014C00097F82D301A46FB699342B7D300BF00BF8F
:1014D0002037BD46BDE8804002B0704782B080B57D
:1014E00086B004AF3A607B610346FB800B46BB804D
:1014F000FFF798FD33E0FB883A7D13441F4A1288BA
:1015000092B2934216DB0023FB807B7D1A46BB8898
:101510001344BB80BB887A7D1344194A128892B267
:10152000934221DA3B681B78202B03D13B680133BF
:101530003B6014E03B681A78B988F8883B8C0293CA
:10154000BB8B0193BB6900937B69FFF755FF3B7D24
:101550001A46FB881344FB803B6801333B603B68C1
:101560001B78002BC7D100E000BFFFF767FD00BF6D
:101570000837BD46BDE8804002B070470200002039
:101580000000002090B585B000AF04460846114623
:101590001A462346FB800346BB800B467B801346DE
:1015A0003B80FFF73FFDFA887B8813449BB2013BE9
:1015B0009CB2BA883B8813449BB2013B9BB2B9886A
:1015C000F8882246FFF7A2FD3B8C1B0A9BB2DBB2D8
:1015D0003B733B8CDBB27B7301220121114803F08A
:1015E00078FA3B88BB8013E07B88FB800AE007F138
:1015F0000C014FF0FF3302220B4804F013FCFB8870
:10160000013BFB80FB88002BF1D1BB88013BBB80F9
:10161000BB88002BE8D1FFF711FD00BF1437BD4692
:1016200090BD00BF000C01405C0D002080B584B06F
:1016300002AF0346FB80084B1B889AB2074B1B88FE
:1016400099B2FB8800930B4600210020FFF79AFF18
:1016500000BF0837BD4680BD02000020000000200A
:1016600090B583B000AF0446084611461A4623469B
:10167000FB800346BB800B467B8013463B80214B9F
:101680001B889BB2FA889A4234D21F4B1B889BB2AC
:10169000BA889A422ED2FA887B881344194A128853
:1016A00092B2934228DCBA883B881344164A1288C7
:1016B00092B2934222DCFFF7B5FCFA887B88134490
:1016C0009BB2013B9CB2BA883B8813449BB2013B5E
:1016D0009BB2B988F8882246FFF718FD7B883A88C4
:1016E00002FB03F35B001946B869FFF7E1FCFFF763
:1016F000A5FC04E000BF02E000BF00E000BF0C3723
:10170000BD4690BD020000200000002080B483B0E0
:1017100000AF0346FB80084B1B6800225A6200BFE3
:10172000054B1B685A6AFB889A42F9D300BF00BF79
:101730000C37BD4680BC7047500E002080B586B087
:1017400000AF0023FB753B1D00221A605A609A60AF
:10175000DA604FF400737B600123BB6002233B61BE
:101760000023FB603B1D19462C4803F017F80022AC
:101770004FF40071294803F0ACF9142002F0C8FCC2
:1017800001224FF40071254803F0A3F91E20FFF752
:10179000BDFF0023BB600123FB603B1D19461F48B2
:1017A00002F0FCFF2820FFF7B1FF4FF400711B4847
:1017B00003F078F90346002B0CD15020FFF7A6FF69
:1017C0004FF40071154803F06DF90346002B01D06A
:1017D0000123FB7502F092FC0346114A136002F0EC
:1017E0008DFC03460F4A136004E002F087FC0346B9
:1017F0000C4A13604FF40071084803F053F9034694
:10180000002B06D0064B1B689A1C064B1B689A429D
:10181000EBD8FB7D18461837BD4680BD000C014053
:10182000E80E0020EC0E002080B582B000AF00234F
:10183000BB710023FB7166E002F060FC0346364A90
:10184000136002F05BFC0346344A136004E002F0CC
:1018500055FC0346314A13604FF40071304803F0E1
:1018600021F90346002B06D12B4B1B689A1C2B4BEE
:101870001B689A42EBD82820FFF748FF4FF400710D
:10188000274803F00FF90346002B0ED1FB79C3F173
:101890000703012202FA03F35BB2DB435AB297F962
:1018A000063013405BB2BB710BE0FB79C3F1070359
:1018B000012202FA03F35AB297F9063013435BB2DE
:1018C000BB7102F01BFC0346134A136002F016FCC6
:1018D0000346124A136004E002F010FC03460F4A6C
:1018E00013604FF400710E4803F0DCF80346002B40
:1018F00006D0094B1B689A1C084B1B689A42EBD810
:10190000FB790133FB71FB79072B95D9BB7918461D
:101910000837BD4680BD00BFE80E0020EC0E002059
:10192000000C014080B582B000AF7860074BD3F85F
:10193000E03A012B05D140F6E8220449044805F0BD
:10194000B6F900BF0837BD4680BD00BF6002002069
:10195000980E002080B584B004AF4FF63C6300932E
:101960002023C8224FF481711320FFF70BFE4FF69E
:101970003C6300932023C822CB211320FFF702FEF3
:101980004FF63C6300932023C82294211320FFF7D5
:10199000F9FD4FF63C6300932023C8225D211320FC
:1019A000FFF7F0FD304B4FF66062029246F2FF7295
:1019B00001925A6800921B682C4A0A217020FFF796
:1019C0008DFD2B4B4FF66062029246F2FF72019240
:1019D0005A6800921B68274A26213020FFF77EFDB7
:1019E000214B4FF63C62029243F6740201925A6810
:1019F00000921B68204A64213C20FFF76FFD1A4BC0
:101A00004FF63C62029243F6740201925A680092C9
:101A10001B681A4A9B215220FFF760FD124B4FF6BC
:101A20003C62029243F6740201925A6800921B686B
:101A3000134AD2216020FFF751FD0B4B4FF63C6259
:101A4000029243F6740201925A6800921B680D4A92
:101A500040F209111920FFF741FD0B4B01221A60DA
:101A600000BFBD4680BD00BF0C000020E4A40008FC
:101A700014000020ECA40008F8A4000804A5000845
:101A80000CA5000810A50008281B002090B597B0F1
:101A900004AF3A1DBB1D1146184602F0FDF903467E
:101AA000002B01F07A846A4B1B68002B41F075848F
:101AB000FB88BB2B40F2A983FB88C42B00F2A583D3
:101AC000BB88082B40F2A183BB88B3F59F7F00F24F
:101AD0009C83604B0122DA604FF47A7310225D49D7
:101AE0005D4805F059F85B4B0022DA604FF47A73D9
:101AF00010225849584805F04FF826E0554B01226E
:101B0000DA604FF47A7310225249534805F044F8D2
:101B1000504B0022DA604FF47A7310224D494E4840
:101B200005F03AF840F27960FFF780FD4B4B40F248
:101B30007962029246F29F1201925A6800921B68E3
:101B4000474A93212820FFF7C9FC464BD3F8DC3ADB
:101B5000022BD3D1434BD3F8DC3A012BCED0414BEF
:101B6000D3F8DC3A032BC9D00020FFF75FFD3E4BD2
:101B7000002202924FF6801201925A6800921B686E
:101B80003A4A01216720FFF7A9FC394B009318233B
:101B900018220121CE20FFF763FD44F21E5300936B
:101BA0001623162250212620FFF7ECFC314A324939
:101BB000324806F029FB2C4B44F21E5202924FF69B
:101BC000FF7201925A6800921B682C4A52212B2006
:101BD000FFF784FC44F21E53009316231622502173
:101BE000BB20FFF7CFFC264A2349244806F00CFB14
:101BF0001D4B44F21E5202924FF6FF7201925A6838
:101C000000921B681D4A5221C220FFF767FC154B4A
:101C1000D3F8D83A01337B64124BD3F8D83AFB623D
:101C2000ECE20C4B0122DA604FF47A73102209497E
:101C3000094804F0B1FF074B0022DA604FF47A73D1
:101C400010220449044804F0A7FF00233B646CE21F
:101C5000241B00202C000020980E002014000020DF
:101C600024A50008600200200C0000200CA500083C
:101C70009CF3000830A5000834A5000820130020BC
:101C800038A50008944A3B6CA83352F82320934BA4
:101C90001B681A44924B83FB021313449910D31709
:101CA000C91A0B46DB005B1AD31ABB623B6C002BD4
:101CB00040F034818B4ABB6A52F823301A468A4975
:101CC0008A4806F0A1FA8A4B002202924FF6FF7270
:101CD00001925A6800921B68844A1E210520FFF772
:101CE000FDFB7D493A6C13465B001344DB00FA6A46
:101CF000134451F823301A467E497F4806F084FA8F
:101D00007B4B002202924FF6FF7201925A680092BA
:101D10001B68794A1E213C20FFF7E0FB774A724995
:101D2000774806F071FA774B002202924FF6FF7265
:101D300001925A6800921B68714A1E215320FFF7D6
:101D4000CDFB65493A6C13465B001344DB00FA6A2D
:101D50001344BC339B000B445B681A466A496648CF
:101D600006F052FA624B002202924FF6FF72019285
:101D70005A6800921B68604A37213C20FFF7AEFB8F
:101D800055493A6C13465B001344DB00FA6A13446E
:101D9000B333DB000B44D3E900014FF000024FF0F6
:101DA0000003FEF701FE0346002B08D0574B0093BB
:101DB000202320221E218620FFF752FC07E0544BEF
:101DC0000093202320221E218620FFF749FC7B6CF4
:101DD0000C2B1EDD0023009312232C2252215020B5
:101DE000FFF7D0FB7B6C0C3B7B627A6A4949424827
:101DF00006F00AFA3E4B002202924FF6DF72019281
:101E00005A6800921B683C4A52215020FFF766FB3B
:101E100012E07A6C4049384806F0F6F9344B00225B
:101E200002924FF6DF7201925A6800921B68324AA2
:101E300052215020FFF752FB27493A6C13465B00B2
:101E40001344DB007A6C134451F823301A462949B5
:101E5000294806F0D9F92B4B002202924FF6FF7267
:101E600001925A6800921B68234A52218720FFF78B
:101E700035FB224A1C49224806F0C6F9214B0022B4
:101E800002924FF6FF7201925A6800921B681C4A38
:101E90004F219620FFF722FB0F493A6C13465B0057
:101EA0001344DB007A6C1344BC339B000B445B6827
:101EB0001A461549104806F0A7F9124B0022029263
:101EC0004FF6FF7201925A6800921B680A4A5D2120
:101ED0008720FFF703FB25E160020020201B002084
:101EE000932449924C00002034A5000820170020BC
:101EF0000C0000203CA50008200F002040A5000891
:101F0000201300200400002044A500089CCD0008F8
:101F10009CD500084CA5000854A500089F4ABB6A40
:101F200052F823301A469E499E4806F06DF93B6CE4
:101F30009BB21A461201D31A5B009BB2613399B26D
:101F4000994B002202924FF6FF7201925A6800925A
:101F50001B68944A1420FFF7C1FA944A3B6CAE33D5
:101F60009B0013445B681A469149924806F04CF96D
:101F70003B6C9BB21A461201D31A5B009BB26133D1
:101F800099B2894B002202924FF6FF7201925A6871
:101F900000921B68874A4B20FFF7A0FA864A8049C7
:101FA000864806F031F93B6C9BB21A461201D31AEF
:101FB0005B009BB25D3399B27B4B002202924FF6DD
:101FC000FF7201925A6800921B687C4A5A20FFF700
:101FD00085FA764A3B6CB63352F823301A46744978
:101FE000744806F011F93B6C9BB21A461201D31AE1
:101FF0005B009BB2613399B26B4B002202924FF6A9
:10200000FF7201925A6800921B686A4A6920FFF7C2
:1020100065FA694A6249694806F0F6F83B6C9BB27A
:102020001A461201D31A5B009BB25D3399B25E4B24
:10203000002202924FF6FF7201925A6800921B68CA
:102040005E4A7820FFF74AFA58493A6C13465B001B
:102050001344DB00FA6A1344BC339B000B445B68F7
:102060001A465749534806F0CFF83B6C9BB21A46C4
:102070001201D31A5B009BB2613399B24A4B002222
:1020800002924FF6FF7201925A6800921B68494A09
:10209000B320FFF723FA45493A6C13465B0013441B
:1020A000DB00FA6A1344B333DB000B44D3E90001CD
:1020B0004FF000024FF00003FEF776FC0346002BC2
:1020C00010D03B6C9BB21A461201D31A5B009BB234
:1020D0005C3399B23B4B0093102310223720FFF75B
:1020E000BFFA0FE03B6C9BB21A461201D31A5B0099
:1020F0009BB25C3399B2344B0093102310223720EB
:10210000FFF7AEFA3B6C9BB21A461201D31A5B0082
:102110009BB25C3399B22D4B0093102310229B206D
:10212000FFF79EFA3B6C01333B643B6C062B7FF759
:10213000A9AD4FF4FA6001F0EBFF3A1DBB1D11464B
:10214000184601F0A9FE0346002B57D0FB88032B4D
:102150000FD9FB88142B0CD8BB88B3F58E7F08D31E
:10216000BB88B3F5A07F04D8194B01221A6001F097
:1021700014B9FB883F2B2DD9FB88532B2AD8BB8859
:10218000B3F5867F26D9BB88B3F59F7F22D87B6CB9
:10219000172B33DC7B6C01337B642FE04C00002079
:1021A00034A5000820170020040000206002002051
:1021B0003CA50008200F002040A5000820130020A7
:1021C00044A500089CEF00089CF100089CED000865
:1021D000241B0020FB883F2B10D9FB88502B0DD8E7
:1021E000BB88302B0AD9BB88442B07D87B6C013BBA
:1021F000FA6A9A4202DA7B6C013B7B646B4B1B6888
:10220000012B7FF40EAD01F0C8B8FB884C2B40F2D7
:10221000AA83FB88632B00F2A683BB88082B40F2BD
:10222000A283BB88B3F59F7F00F29D83604B0122A0
:10223000DA604FF47A7310225D495E4804F0ACFC1A
:102240005B4B0022DA604FF47A73102258495948E8
:1022500004F0A2FC26E0564B0122DA604FF47A73B8
:1022600010225349534804F097FC514B0022DA6086
:102270004FF47A7310224E494E4804F08DFC40F220
:102280007960FFF7D3F94C4B40F27962029246F243
:102290009F1201925A6800921B68484A9321282095
:1022A000FFF71CF9464BD3F8DC3A012BD3D1444B52
:1022B000D3F8DC3A022BCED0414BD3F8DC3A032BD7
:1022C000C9D00020FFF7B2F93E4B002202924FF630
:1022D000801201925A6800921B683B4A0121322009
:1022E000FFF7FCF8394B0093182318220121CE2068
:1022F000FFF7B6F944F21E5300931623162250211D
:102300002620FFF73FF9324A3249334805F07CFF77
:102310002C4B44F21E5202924FF6FF7201925A6801
:1023200000921B682C4A52212B20FFF7D7F844F269
:102330001E530093162316225021BB20FFF722F9CB
:10234000264A2449244805F05FFF1E4B44F21E52E2
:1023500002924FF6FF7201925A6800921B681E4A61
:102360005221C220FFF7BAF8154BD3F8D83A0133FF
:10237000FB63134BD3F8D83A3B62EDE20C4B0122DE
:10238000DA604FF47A73102209490A4804F004FC19
:10239000074B0022DA604FF47A7310220449054893
:1023A00004F0FAFB0023BB636DE200BF241B002096
:1023B0001C000020980E00201400002024A5000816
:1023C000600200200C000020F8A400089CF3000824
:1023D00030A5000834A500082013002038A5000807
:1023E000944ABB6BA83352F82320934B1B681A44C2
:1023F000924B83FB021313449910D317C91A0B464F
:10240000DB005B1AD31AFB61BB6B002B40F03481FD
:102410008B4AFB6952F823301A468A498A4805F0EC
:10242000F3FE8A4B002202924FF6FF7201925A6825
:1024300000921B68844A1E210520FFF74FF87D4952
:10244000BA6B13465B001344DB003A6A134451F83D
:1024500023301A467E497F4805F0D6FE7B4B00228A
:1024600002924FF6FF7201925A6800921B68794AF5
:102470001E213C20FFF732F8774A7249774805F071
:10248000C3FE774B002202924FF6FF7201925A6808
:1024900000921B68714A1E215320FFF71FF86549FF
:1024A000BA6B13465B001344DB003A6A1344BC3337
:1024B0009B000B445B681A466A49664805F0A4FE17
:1024C000624B002202924FF6FF7201925A6800920C
:1024D0001B68604A32213C20FFF700F85549BA6B6F
:1024E00013465B001344DB003A6A1344B333DB004A
:1024F0000B44D3E900014FF000024FF00003FEF758
:1025000053FA0346002B08D0574B00932023202278
:102510001E218620FFF7A4F807E0544B00932023E8
:1025200020221E218620FFF79BF8FB6B0C2B1EDD63
:102530000023009312232C2252215020FFF722F86F
:10254000FB6B0C3BBB61BA694949424805F05CFE34
:102550003E4B002202924FF6DF7201925A680092BF
:102560001B683C4A52215020FEF7B8FF12E0FA6B7C
:102570004049384805F048FE344B002202924FF69D
:10258000DF7201925A6800921B68324A5221502031
:10259000FEF7A4FF2749BA6B13465B001344DB0028
:1025A000FA6B134451F823301A462949294805F09B
:1025B0002BFE2B4B002202924FF6FF7201925A68BB
:1025C00000921B68234A52218720FEF787FF224A88
:1025D0001C49224805F018FE214B002202924FF6BA
:1025E000FF7201925A6800921B681C4A4F21962084
:1025F000FEF774FF0F49BA6B13465B001344DB0010
:10260000FA6B1344BC339B000B445B681A461549B4
:10261000104805F0F9FD124B002202924FF6FF72AE
:1026200001925A6800921B680A4A5D218720FEF7D2
:1026300055FF25E160020020201B002093244992D1
:102640004C00002034A50008201700200C000020BA
:102650003CA50008200F002040A500082013002002
:102660000400002044A500089CCD00089CD500086B
:102670004CA5000854A500089F4AFB6952F8233076
:102680001A469E499E4805F0BFFDBB6B9BB21A4699
:102690001201D31A5B009BB2613399B2994B0022AD
:1026A00002924FF6FF7201925A6800921B68944A98
:1026B0001420FEF713FF944ABB6BAE339B00134408
:1026C0005B681A469149924805F09EFDBB6B9BB230
:1026D0001A461201D31A5B009BB2613399B2894B3F
:1026E000002202924FF6FF7201925A6800921B6814
:1026F000874A4B20FEF7F2FE864A8049864805F05D
:1027000083FDBB6B9BB21A461201D31A5B009BB2CE
:102710005D3399B27B4B002202924FF6FF72019219
:102720005A6800921B687C4A5A20FEF7D7FE764A08
:10273000BB6BB63352F823301A467449744805F01F
:1027400063FDBB6B9BB21A461201D31A5B009BB2AE
:10275000613399B26B4B002202924FF6FF720192E5
:102760005A6800921B686A4A6920FEF7B7FE694AF8
:102770006249694805F048FDBB6B9BB21A461201DD
:10278000D31A5B009BB25D3399B25E4B002202927A
:102790004FF6FF7201925A6800921B685E4A7820D9
:1027A000FEF79CFE5849BA6B13465B001344DB00EE
:1027B0003A6A1344BC339B000B445B681A46574982
:1027C000534805F021FDBB6B9BB21A461201D31A88
:1027D0005B009BB2613399B24A4B002202924FF6E2
:1027E000FF7201925A6800921B68494AB320FEF7B3
:1027F00075FE4549BA6B13465B001344DB003A6A29
:102800001344B333DB000B44D3E900014FF0000263
:102810004FF00003FEF7C8F80346002B10D0BB6B47
:102820009BB21A461201D31A5B009BB25C3399B279
:102830003B4B0093102310223720FEF711FF0FE0CF
:10284000BB6B9BB21A461201D31A5B009BB25C337E
:1028500099B2344B0093102310223720FEF700FF6B
:10286000BB6B9BB21A461201D31A5B009BB25C335E
:1028700099B22D4B0093102310229B20FEF7F0FEFF
:10288000BB6B0133BB63BB6B062B7FF7A9AD4FF46A
:10289000FA6001F03DFC3A1DBB1D1146184601F0DF
:1028A000FBFA0346002B57D0FB88032B0FD9FB887C
:1028B000142B0CD8BB88B3F58E7F08D3BB88B3F537
:1028C000A07F04D8194B02221A6000F066BDFB8875
:1028D0003F2B2DD9FB88532B2AD8BB88B3F5867F95
:1028E00026D9BB88B3F59F7F22D8FB6B172B33DC2F
:1028F000FB6B0133FB632FE04C00002034A5000884
:102900002017002004000020600200203CA50008E1
:10291000200F002040A500082013002044A5000837
:102920009CEF00089CF100089CED0008241B00208F
:10293000FB883F2B10D9FB88502B0DD8BB88302B40
:102940000AD9BB88442B07D8FB6B013B3A6A9A42F1
:1029500002DAFB6B013BFB636B4B1B68022B7FF4C2
:102960000DAD00F01ABDFB88732B40F2AD83FB88E0
:10297000B92B00F2A983BB88082B40F2A583BB8842
:10298000B3F59F7F00F2A083604B0122DA604FF421
:102990007A7310225D495E4804F0FEF85B4B00221A
:1029A000DA604FF47A7310225849594804F0F4F869
:1029B00026E0564B0122DA604FF47A731022534915
:1029C000534804F0E9F8514B0022DA604FF47A736F
:1029D00010224E494E4804F0DFF840F27960FEF7CD
:1029E00025FE4C4B40F27962029246F29F12019210
:1029F0005A6800921B68484A93212820FEF76EFD12
:102A0000464BD3F8DC3A032BD3D1444BD3F8DC3A12
:102A1000022BCED0414BD3F8DC3A012BC9D0002099
:102A2000FEF704FE3E4B002202924FF68012019206
:102A30005A6800921B683B4A01215720FEF74EFD61
:102A4000394B0093182318220121CE20FEF708FEEF
:102A500044F21E5300931623162250212620FEF71F
:102A600091FD324A3249334805F0CEFB2C4B44F2FB
:102A70001E5202924FF6FF7201925A6800921B6832
:102A80002C4A52212B20FEF729FD44F21E530093BD
:102A9000162316225021BB20FEF774FD264A244936
:102AA000244805F0B1FB1E4B44F21E5202924FF631
:102AB000FF7201925A6800921B681E4A5221C2207E
:102AC000FEF70CFD154BD3F8D83A01337B63134B5B
:102AD000D3F8D83A7B61F1E20C4B0122DA604FF473
:102AE0007A73102209490A4804F056F8074B00226D
:102AF000DA604FF47A7310220449054804F04CF868
:102B000000233B6371E200BF241B00203C00002037
:102B1000980E00201400002024A500086002002068
:102B20000C00002004A500089CF3000830A5000854
:102B300034A500082013002038A50008964A3B6BF6
:102B4000A83352F82320954B1B681A44944B83FBFF
:102B5000021313449910D317C91A0B46DB005B1AF2
:102B6000D31A3B618C4BD3F8D83AFB603B6B002BFC
:102B700040F034818B4A3B6952F823301A468A4927
:102B80008A4805F041FB8A4B002202924FF6FF7201
:102B900001925A6800921B68844A1E210520FEF7A4
:102BA0009DFC7D493A6B13465B001344DB00FA68D9
:102BB000134451F823301A467E497F4805F024FB20
:102BC0007B4B002202924FF6FF7201925A680092EC
:102BD0001B68794A1E213C20FEF780FC774A724927
:102BE000774805F011FB774B002202924FF6FF72F7
:102BF00001925A6800921B68714A1E215320FEF709
:102C00006DFC65493A6B13465B001344DB00FA68C0
:102C10001344BC339B000B445B681A466A49664800
:102C200005F0F2FA624B002202924FF6FF72019217
:102C30005A6800921B68604A32213C20FEF74EFC25
:102C400055493A6B13465B001344DB00FA681344A2
:102C5000B333DB000B44D3E900014FF000024FF027
:102C60000003FDF7A1FE0346002B08D0574B00934D
:102C7000202320221E218620FEF7F2FC07E0544B81
:102C80000093202320221E218620FEF7E9FC7B6B87
:102C90000C2B1EDD0023009312232C2252215020E6
:102CA000FEF770FC7B6B0C3BBB60BA68494942483D
:102CB00005F0AAFA3E4B002202924FF6DF72019213
:102CC0005A6800921B683C4A52215020FEF706FCCD
:102CD00012E07A6B4049384805F096FA344B0022EE
:102CE00002924FF6DF7201925A6800921B68324AD4
:102CF00052215020FEF7F2FB27493A6B13465B0046
:102D00001344DB007A6B134451F823301A462949E7
:102D1000294805F079FA2B4B002202924FF6FF72F8
:102D200001925A6800921B68234A52218720FEF7BD
:102D3000D5FB224A1C49224805F066FA214B0022A5
:102D400002924FF6FF7201925A6800921B681C4A69
:102D50004F219620FEF7C2FB0F493A6B13465B00EA
:102D60001344DB007A6B1344BC339B000B445B6859
:102D70001A461549104805F047FA124B00220292F4
:102D80004FF6FF7201925A6800921B680A4A5D2151
:102D90008720FEF7A3FB25E160020020201B002016
:102DA000932449924C00002034A5000820170020ED
:102DB0000C0000203CA50008200F002040A50008C2
:102DC000201300200400002044A500089CCD00082A
:102DD0009CD500084CA5000854A500089F4A3B69F3
:102DE00052F823301A469E499E4805F00DFA3B6B77
:102DF0009BB21A461201D31A5B009BB2613399B29F
:102E0000994B002202924FF6FF7201925A6800928B
:102E10001B68944A1420FEF761FB944A3B6BAE3367
:102E20009B0013445B681A469149924805F0ECF9FF
:102E30003B6B9BB21A461201D31A5B009BB2613303
:102E400099B2894B002202924FF6FF7201925A68A2
:102E500000921B68874A4B20FEF740FB864A804958
:102E6000864805F0D1F93B6B9BB21A461201D31A82
:102E70005B009BB25D3399B27B4B002202924FF60E
:102E8000FF7201925A6800921B687C4A5A20FEF732
:102E900025FB764A3B6BB63352F823301A46744909
:102EA000744805F0B1F93B6B9BB21A461201D31A74
:102EB0005B009BB2613399B26B4B002202924FF6DA
:102EC000FF7201925A6800921B686A4A6920FEF7F5
:102ED00005FB694A6249694805F096F93B6B9BB26C
:102EE0001A461201D31A5B009BB25D3399B25E4B56
:102EF000002202924FF6FF7201925A6800921B68FC
:102F00005E4A7820FEF7EAFA58493A6B13465B00AE
:102F10001344DB00FA681344BC339B000B445B682A
:102F20001A465749534805F06FF93B6B9BB21A4656
:102F30001201D31A5B009BB2613399B24A4B002253
:102F400002924FF6FF7201925A6800921B68494A3A
:102F5000B320FEF7C3FA45493A6B13465B001344AE
:102F6000DB00FA681344B333DB000B44D3E9000100
:102F70004FF000024FF00003FDF716FD0346002B53
:102F800010D03B6B9BB21A461201D31A5B009BB266
:102F90005C3399B23B4B0093102310223720FEF78D
:102FA0005FFB0FE03B6B9BB21A461201D31A5B002A
:102FB0009BB25C3399B2344B00931023102237201C
:102FC000FEF74EFB3B6B9BB21A461201D31A5B0015
:102FD0009BB25C3399B22D4B0093102310229B209F
:102FE000FEF73EFB3B6B01333B633B6B062B7FF7EE
:102FF000A5AD4FF4FA6001F08BF83A1DBB1D1146E8
:10300000184600F049FF0346002B57D0FB88032BDE
:103010000ED9FB88142B0BD8BB88B3F58E7F07D352
:10302000BB88B3F5A07F03D8194B03221A60B4E123
:10303000FB883F2B2ED9FB88532B2BD8BB88B3F5AD
:10304000867F27D9BB88B3F59F7F23D87B6B172B4F
:1030500034DC7B6B01337B6330E000BF4C0000202D
:1030600034A5000820170020040000206002002082
:103070003CA50008200F002040A5000820130020D8
:1030800044A500089CEF00089CF100089CED000896
:10309000241B0020FB883F2B10D9FB88502B0DD818
:1030A000BB88302B0AD9BB88442B07D87B6B013BEC
:1030B0007A699A4202DA7B6B013B7B63274B1B6880
:1030C000032B7FF409AD68E1FB88C92B40F26581D1
:1030D000FB88E72B00F26181BB88082B40F25D8101
:1030E000BB88B3F59F7F00F258810020FEF79EFA5F
:1030F0001B4B0093182318220121CE20FEF7B0FAB3
:10310000184B002202924FF6FF7201925A68009209
:103110001B68154A5D212020FEF7E0F9134B009350
:103120002023202281212E20FEF79AFA0D4B002227
:1031300002924FF6FF7201925A6800921B680C4A85
:10314000AF213820FEF7CAF90A4B00932023202232
:10315000D3212E20FEF784FA1AE100BF241B0020A1
:103160009CF30008140000205CA500089CE5000802
:1031700068A500089CDD0008FEF7E0FA0346002B76
:1031800000F0EB80FEF750FB03461A46844B1A70A2
:10319000FEF74AFB03461A46824B1A70FEF744FBC1
:1031A00003461A46804B1A70FEF73EFB03461A464A
:1031B0007E4B1A70FEF738FB03461A467C4B1A709A
:1031C000774B1B781A46774B1B781344764A127854
:1031D0001344764A12781344754A1278934240F0A9
:1031E000BC80714B1B781846FDF754FD04466F4BAD
:1031F0001B781846FDF706F94FF000026D4BFDF7FE
:1032000095FA02460B4610461946FDF73DFC03466B
:1032100019462046FDF78EFC03461A46664B1A6097
:10322000654B1B6865491846FDF78CFD03466449EC
:103230001846FDF73BFE03464FF084411846FDF764
:1032400079FC03461A465F4B1A60554B1B781846AB
:10325000FDF720FD0446534B1B781846FDF7D2F8C6
:103260004FF00002534BFDF761FA02460B46104641
:103270001946FDF709FC034619462046FDF75AFC9E
:1032800003461A46504B1A604E4B1B681846FDF712
:10329000A9FE0346DAB24D4B1A704A4B1B684C49E3
:1032A0001846FDF74FFD03461C46484B1B781A464F
:1032B00013469B0013445B001846FDF7EFFC0346E2
:1032C00019462046FDF734FC03461846FDF78AFEF2
:1032D0000346DAB23F4B1A70334B1B781A46334B16
:1032E0001B783D493D4804F08FFF3D4B0022029280
:1032F0004FF6FF7201925A6800921B68374A832189
:103300005820FEF7EBF8374A3749384804F07CFF7D
:10331000374B002202924FF6FF7201925A680092D8
:103320001B68324A8021A920FEF7D8F81C4B1B7875
:103330001A461C4B1B782F49284804F065FF284B80
:10334000002202924FF6FF7201925A6800921B68A7
:10335000224ADC215820FEF7C1F83A1DBB1D114658
:10336000184600F099FD0346002B11D0FB88032B73
:103370000ED9FB88142B0BD8BB88B3F58E7F07D3EF
:10338000BB88B3F5A07F03D81B4B04221A6004E06E
:10339000194B1B68042B7FF4EFAE4C37BD4690BD34
:1033A000E00E0020E10E0020E20E0020E30E0020DF
:1033B000E40E002000002440F00E00200000104128
:1033C0000000A040F40E0020F80E0020FC0E0020AB
:1033D00000002041FD0E002074A50008000F002011
:1033E0001400002040A5000834A500082013002088
:1033F0000C0000207CA50008241B002080B582B0B2
:1034000000AF3A1DBB1D1146184600F045FD0346AE
:10341000002B27D0FB88032B24D9FB88142B21D821
:10342000BB88B3F58E7F1DD3BB88B3F5A07F19D8B9
:103430000E4B1B68012B0BD00C4B1B68022B07D0CB
:103440000A4B1B68032B03D0084B1B68042B09D1C4
:103450004FF66060FEF7EAF8044B00221A60044B56
:1034600000221A6000BF0837BD4680BD241B002023
:10347000281B002080B500AF00F0E8FD00F03AF80E
:1034800000F0E0F900F0C0F900F0D8F800F042F9DF
:1034900000F090F900F008F900F086F8104803F009
:1034A000B7F8FDF77BFE4FF66060FEF7BFF840F619
:1034B000E8220C490C4803F0FAFB0C4B1B68002B6C
:1034C00005D10B4B1B68002B01D1FEF743FAFEF729
:1034D000DDFAFFF793FF4FF4FA7000F019FEECE706
:1034E000500E002060020020980E0020241B0020B7
:1034F000281B002080B594B000AF07F128032822D4
:103500000021184604F0E3FE07F1140300221A60BC
:103510005A609A60DA601A613B1D00221A605A6094
:103520009A60DA600A23BB620123BB631023FB634A
:1035300001233B6402237B640023BB644FF46013CC
:10354000FB6407F12803184601F0E8FA0346002B54
:1035500001D000F0E3F90F237B610223BB6100235C
:10356000FB614FF480633B6200237B6207F114032D
:103570000221184601F054FD0346002B01D000F053
:10358000CDF901237B604FF40073BB603B1D1846EF
:1035900001F0D4FE0346002B01D000F0BFF900BFBC
:1035A0005037BD4680BD000080B582B000AF3B1DE6
:1035B00000210A461A800A469A7000233B601D4B80
:1035C0001D4A1A601B4B4FF0FF325A60194B002204
:1035D0009A60184802F01EF80346002B01D000F054
:1035E0009DF90F233B711C237B710023BB713B1D95
:1035F000002219460F4802F099F80346002B01D02B
:1036000000F08CF901233B7011237B701223BB70F7
:103610001823FB703B4600221946064802F01EF9AB
:103620000346002B01D000F079F900BF0837BD46F2
:1036300080BD00BF480D00200028004080B500AFCD
:10364000174B184A1A60164B4FF482725A60144B8B
:1036500000229A60124B0022DA60114B00221A619C
:103660000F4B00225A610E4B4FF400729A610C4BC3
:103670000822DA610A4B00221A62094B00225A62C0
:10368000074B00229A62064B0A22DA62044802F0D3
:1036900045FB0346002B01D000F040F900BF80BD80
:1036A0005C0D00200030014080B500AF174B184A78
:1036B0001A60164B4FF482725A60144B00229A60C3
:1036C000124B0022DA60114B00221A610F4B0022CC
:1036D0005A610E4B4FF400729A610C4B0822DA616A
:1036E0000A4B00221A62094B00225A62074B002241
:1036F0009A62064B0A22DA62044802F00FFB034684
:10370000002B01D000F00AF900BF80BDB40D0020ED
:103710000038004080B586B000AF07F108030022F2
:103720001A605A609A60DA603B4600221A605A605A
:103730001E4B1F4A1A601D4B47225A601B4B00222A
:103740009A601A4B4FF6FF72DA60184B00221A612A
:10375000164B00225A61154B00229A61134802F061
:1037600008FF0346002B01D000F0D8F84FF4805337
:10377000BB6007F1080319460C4802F093FF0346AB
:10378000002B01D000F0CAF800233B6000237B60CF
:103790003B461946054803F051F90346002B01D07A
:1037A00000F0BCF800BF1837BD4680BD500E0020A9
:1037B000002C014080B500AF114B124A1A60104B2B
:1037C0004FF416525A600E4B00229A600C4B0022A6
:1037D000DA600B4B00221A61094B0C225A61084B2C
:1037E00000229A61064B0022DA61054803F084F951
:1037F0000346002B01D000F091F800BF80BD00BF50
:10380000980E00200038014080B582B000AF0C4B0C
:103810005B690B4A43F001035361094B5B6903F099
:1038200001037B607B68002200210D2000F06BFD0E
:103830000D2000F084FD00BF0837BD4680BD00BFED
:103840000010024080B588B000AF07F110030022DD
:103850001A605A609A60DA602D4B9B692C4A43F0DB
:10386000200393612A4B9B6903F02003FB60FB68F4
:10387000274B9B69264A43F004039361244B9B69C1
:1038800003F00403BB60BB68214B9B69204A43F0F3
:10389000080393611E4B9B6903F008037B607B6800
:1038A000012210211B4801F014F9002240F20361AB
:1038B000194801F00EF908233B6100237B610023C6
:1038C000BB6107F110031946124800F067FF10238F
:1038D0003B6101237B610023BB610223FB6107F194
:1038E000100319460B4800F059FF40F203633B6197
:1038F00001237B610023BB610223FB6107F11003FD
:103900001946054800F04AFF00BF2037BD4680BD7C
:103910000010024000080140000C014080B400AFDC
:1039200072B600BF00BFFDE780B485B000AF154B95
:103930009B69144A43F001039361124B9B6903F0A6
:103940000103BB60BB680F4BDB690E4A43F0805339
:10395000D3610C4BDB6903F080537B607B680A4BBF
:103960005B68FB60FB6823F0E063FB60FB6843F08F
:103970000073FB60044AFB68536000BF1437BD4608
:1039800080BC7047001002400000014080B584B048
:1039900000AF78607B681B680B4A934210D101F03E
:1039A000B1F80A4BDB69094A43F00063D361074B66
:1039B000DB6903F00063FB60FB68054B01221A60C2
:1039C00000BF1037BD4680BD0028004000100240F7
:1039D0003C04424280B58AB000AF786007F118031A
:1039E00000221A605A609A60DA607B681B684B4A52
:1039F000934257D14A4B9B69494A43F480539361A0
:103A0000474B9B6903F480537B617B69444B9B6903
:103A1000434A43F004039361414B9B6903F0040361
:103A20003B613B69A023BB610223FB6103237B62F3
:103A300007F1180319463B4800F0B0FE4023BB6174
:103A40000023FB6100233B6207F118031946354848
:103A500000F0A4FE344B354A1A60334B10225A60F2
:103A6000314B00229A60304B8022DA602E4B0022CC
:103A70001A612D4B00225A612B4B00229A612A4B6E
:103A80004FF44052DA61284800F074FC0346002BE2
:103A900001D0FFF743FF7B68234A9A64224A7B6880
:103AA000536236E07B681B68214A934231D11C4B3C
:103AB000DB691B4A43F48043D361194BDB6903F490
:103AC0008043FB60FB68164B9B69154A43F0080373
:103AD0009361134B9B6903F00803BB60BB684FF411
:103AE0002043BB610223FB6103237B6207F11803C0
:103AF0001946104800F052FE4FF48043BB6100238A
:103B0000FB6100233B6207F118031946094800F0E6
:103B100045FE00BF2837BD4680BD00BF00300140D4
:103B200000100240000801400C0E0020300002404E
:103B300000380040000C014080B485B000AF7860D0
:103B40007B681B68094A93420BD1094B9B69084A61
:103B500043F400639361064B9B6903F40063FB60CD
:103B6000FB6800BF1437BD4680BC7047002C014085
:103B70000010024080B58AB000AF786007F11403EE
:103B800000221A605A609A60DA607B681B68264AD5
:103B9000934245D1254B9B69244A43F4804393616A
:103BA000224B9B6903F480433B613B691F4B9B693C
:103BB0001E4A43F0080393611C4B9B6903F0080302
:103BC000FB60FB6840237B610223BB6103233B62F4
:103BD00007F114031946164800F0E0FD80237B61CD
:103BE0000023BB610023FB6107F114031946104851
:103BF00000F0D4FD0F4B5B687B627B6A43F0E063AF
:103C00007B627B6A43F004037B620A4A7B6A5360EF
:103C100000220021252000F076FB252000F08FFBFC
:103C200000BF2837BD4680BD00380140001002406B
:103C3000000C01400000014080B400AF00BFFDE770
:103C400080B400AF00BFFDE780B400AF00BFFDE768
:103C500080B400AF00BFFDE780B400AF00BFFDE758
:103C600080B400AF00BFBD4680BC704780B400AFD9
:103C700000BFBD4680BC704780B400AF00BFBD46EA
:103C800080BC704780B500AF00F026FA00BF80BD51
:103C900080B500AF024800F07BFC00BF80BD00BFD4
:103CA0000C0E002080B500AF024803F025F800BFDD
:103CB00080BD00BF980E002080B400AF01231846DD
:103CC000BD4680BC704780B582B000AF7860396077
:103CD00004F050FB034616221A604FF0FF331846DB
:103CE0000837BD4680BD80B582B000AF78604FF028
:103CF000FF317868FFF7E7FF00BFFDE780B586B0CA
:103D000000AFF860B9607A6000237B610AE0AFF32E
:103D100000800146BB685A1CBA60CAB21A707B693F
:103D200001337B617A697B689A42F0DB7B681846D5
:103D30001837BD4680BD80B586B000AFF860B96069
:103D40007A6000237B6109E0BB685A1CBA601B786B
:103D50001846AFF300807B6901337B617A697B6829
:103D60009A42F1DB7B6818461837BD4680BD80B4A7
:103D700083B000AF78604FF0FF3318460C37BD4674
:103D800080BC704780B483B000AF786039603B6816
:103D90004FF400525A60002318460C37BD4680BCD1
:103DA000704780B483B000AF7860012318460C37A9
:103DB000BD4680BC704780B485B000AFF860B96084
:103DC0007A60002318461437BD4680BC7047000057
:103DD00080B586B000AF7860144A154BD31A7B616A
:103DE0007B693B61134B1B68002B02D1114B124ABC
:103DF0001A60104B1A687B6813443A699A4207D2DA
:103E000004F0B8FA03460C221A604FF0FF3309E0C1
:103E1000084B1B68FB60074B1A687B681344054A14
:103E20001360FB6818461837BD4680BD005000205F
:103E3000000400002C1B0020801C002080B400AF78
:103E400000BFBD4680BC704780B500AF0022102186
:103E5000024800F03EFE00BF80BD00BF00080140E8
:103E600080B500AF01221021024800F032FE00BFF1
:103E700080BD00BF0008014080B500AF08210548A3
:103E800000F010FE0346002B0CBF01230023DBB221
:103E9000184680BD0008014080B58CB002AF786044
:103EA0003960FFF7D1FF00237B6200233B620023D0
:103EB000FB770023BB773FE0FFF7DEFF034683F08D
:103EC0000103DBB2002B3BD1FB7F0133FB774FF0CB
:103ED000FF3301224449454801F0A4FF07F11002D5
:103EE0004FF0FF33009302234149404802F0DEF8CF
:103EF0004FF0FF3301223F493C4801F093FF07F1A7
:103F00000C024FF0FF33009302233949374802F087
:103F1000CDF83B7B1B027A7B13431A467B6A134422
:103F20007B623B7C1B027A7C13431A463B6A134438
:103F30003B62BB7F0133BB77BB7F0F2BBCD900E05B
:103F400000BFFFF78DFFFB7F0F2B01D8002347E059
:103F50007B6A1B09BB61BB6940F2DB52934202D80A
:103F600040F2DC53BB61BB6947F61812934202D999
:103F700047F61813BB613B6A1B097B617B6940F6FE
:103F8000CB42934202D840F6CC437B617B6947F237
:103F90009E52934202D947F29E537B61BA691346FF
:103FA0001B019B1A1B01A3F5AF23A3F5C863124A9B
:103FB000A2FB03239B0B9AB27B681A807A69134693
:103FC0009B0013449B01A3F57F23A3F570635B085B
:103FD0000A4AA2FB03239B0A9AB23B681A80012378
:103FE00018462837BD4680BD34F80008B40D0020BF
:103FF00038F800083CF8000827072E8E55C78913AB
:10400000FFF71CFF0B480C490C4A002302E0D45870
:10401000C4500433C4188C42F9D3094A094C002314
:1040200001E013600432A242FBD304F0A9F9FFF7C8
:1040300021FA7047000000203C020020E8FB000845
:1040400040020020801C0020FEE7000080B500AF89
:10405000084B1B68074A43F010031360032000F06D
:1040600047F90F2000F008F8FFF75EFC0023184620
:1040700080BD00BF0020024080B582B000AF7860F4
:10408000124B1A68124B1B7819464FF47A73B3FB24
:10409000F1F3B2FBF3F3184600F05FF90346002B8F
:1040A00001D001230EE07B680F2B0AD8002279682B
:1040B0004FF0FF3000F027F9064A7B6813600023B9
:1040C00000E0012318460837BD4680BD6800002087
:1040D000700000206C00002080B400AF054B1B78FE
:1040E0001A46054B1B681344034A136000BFBD46C4
:1040F00080BC704770000020301B002080B400AFEF
:10410000024B1B681846BD4680BC7047301B002020
:1041100080B584B000AF7860FFF7F0FFB8607B68CF
:10412000FB60FB68B3F1FF3F05D00A4B1B781A46D2
:10413000FB681344FB6000BFFFF7E0FF0246BB686B
:10414000D31AFA689A42F7D800BF00BF1037BD46AD
:1041500080BD00BF7000002080B485B000AF7860E3
:104160007B6803F00703FB600C4BDB68BB60BA683D
:104170004FF6FF031340BB60FB681A02BB68134392
:1041800043F0BF6343F40033BB60044ABB68D360B1
:1041900000BF1437BD4680BC704700BF00ED00E093
:1041A00080B400AF044BDB681B0A03F0070318461A
:1041B000BD4680BC704700BF00ED00E080B483B016
:1041C00000AF0346FB7197F90730002B0BDBFB793F
:1041D00003F01F02064997F907305B09012000FA36
:1041E00002F241F8232000BF0C37BD4680BC704767
:1041F00000E100E080B483B000AF03463960FB719A
:1042000097F90730002B0ADB3B68DAB20C4997F9C3
:1042100007301201D2B20B4483F800230AE03B6856
:10422000DAB20849FB7903F00F03043B1201D2B262
:104230000B441A7600BF0C37BD4680BC704700BFE8
:1042400000E100E000ED00E080B489B000AFF8606C
:10425000B9607A60FB6803F00703FB61FB69C3F197
:104260000703042B28BF0423BB61FB690433062B1F
:1042700002D9FB69033B00E000237B614FF0FF3272
:10428000BB6902FA03F3DA43BB681A407B699A40C0
:104290004FF0FF317B6901FA03F3D9437B680B4090
:1042A000134318462437BD4680BC704780B582B0A2
:1042B00000AF78607B68013BB3F1807F01D30123BD
:1042C0000FE00A4A7B68013B53600F214FF0FF303B
:1042D000FFF790FF054B00229A60044B07221A60FB
:1042E000002318460837BD4680BD00BF10E000E03F
:1042F00080B582B000AF78607868FFF72DFF00BF0F
:104300000837BD4680BD80B586B000AF0346B960B2
:104310007A60FB7300237B61FFF742FF78617A6864
:10432000B9687869FFF790FF024697F90F30114698
:104330001846FFF75FFF00BF1837BD4680BD80B548
:1043400082B000AF0346FB7197F907301846FFF7BC
:1043500035FF00BF0837BD4680BD80B582B000AFD5
:1043600078607868FFF7A2FF034618460837BD4615
:1043700080BD000080B485B000AF78600023FB6092
:104380007B68002B01D1012343E07B681B681A4640
:10439000224B1344224AA2FB03231B099A007B6889
:1043A0001A647B681F4ADA637B68022283F8212043
:1043B0007B681B681B68FB60FB6823F47F5323F05A
:1043C0003003FB607B685A687B689B681A437B6894
:1043D000DB681A437B681B691A437B685B691A4375
:1043E0007B689B691A437B68DB691343FA68134354
:1043F000FB607B681B68FA681A607B6800229A631E
:104400007B68012283F821207B68002283F820202A
:10441000002318461437BD4680BC7047F8FFFDBF27
:10442000CDCCCCCC0000024080B485B000AF786029
:104430000023FB737B6893F82130DBB2022B08D09A
:104440007B6804229A637B68002283F82020012382
:1044500020E07B681B681A687B681B6822F00E02EC
:104460001A607B681B681A687B681B6822F001026F
:104470001A607B681A6C7B68DB6B012101FA02F21F
:104480005A607B68012283F821207B68002283F830
:104490002020FB7B18461437BD4680BC70470000C7
:1044A00080B584B000AF78600023FB737B6893F81D
:1044B0002130DBB2022B05D07B6804229A630123F2
:1044C000FB7351E07B681B681A687B681B6822F0ED
:1044D0000E021A607B681B681A687B681B6822F0F2
:1044E00001021A607B681B68224A934229D07B68CC
:1044F0001B68214A934222D07B681B681F4A934263
:104500001AD07B681B681E4A934212D07B681B68D6
:104510001C4A93420AD07B681B681B4A934202D113
:104520004FF480130EE04FF080730BE04FF48033B4
:1045300008E04FF4805305E04FF4807302E010234D
:1045400000E00123114A53607B68012283F8212097
:104550007B68002283F820207B685B6B002B03D0F4
:104560007B685B6B78689847FB7B18461037BD46C5
:1045700080BD00BF080002401C0002403000024025
:1045800044000240580002406C000240000002401B
:1045900080B584B000AF78607B68DB6B1B68FB6024
:1045A0007B681B681B68BB607B681B6C04229A409D
:1045B000FB681340002B4FD0BB6803F00403002BB3
:1045C0004AD07B681B681B6803F02003002B07D1CF
:1045D0007B681B681A687B681B6822F004021A60FB
:1045E0007B681B68664A934229D07B681B68654AD2
:1045F000934222D07B681B68634A93421AD07B683F
:104600001B68624A934212D07B681B68604A9342DF
:104610000AD07B681B685F4A934202D14FF4800343
:104620000EE04FF080630BE04FF4802308E04FF47E
:10463000804305E04FF4806302E0402300E0042360
:10464000554A53607B68DB6A002B00F094807B68DE
:10465000DB6A786898478EE07B681B6C02229A4080
:10466000FB681340002B56D0BB6803F00203002BFD
:1046700051D07B681B681B6803F02003002B0BD113
:104680007B681B681A687B681B6822F00A021A6044
:104690007B68012283F821207B681B68384A93429B
:1046A00029D07B681B68374A934222D07B681B68FD
:1046B000354A93421AD07B681B68344A934212D021
:1046C0007B681B68324A93420AD07B681B68314A78
:1046D000934202D14FF400130EE04FF000730BE051
:1046E0004FF4003308E04FF4005305E04FF400733B
:1046F00002E0202300E00223274A53607B68002267
:1047000083F820207B689B6A002B34D07B689B6AEF
:10471000786898472FE07B681B6C08229A40FB68FA
:104720001340002B28D0BB6803F00803002B23D0D4
:104730007B681B681A687B681B6822F00E021A608F
:104740007B681A6C7B68DB6B012101FA02F25A600C
:104750007B6801229A637B68012283F821207B68B1
:10476000002283F820207B681B6B002B04D07B6821
:104770001B6B7868984700BF00BF1037BD4680BDEF
:10478000080002401C000240300002404400024089
:10479000580002406C0002400000024080B48BB020
:1047A00000AF7860396000237B6200233B6269E1DF
:1047B00001227B6A02FA03F3FB613B681B68FA691A
:1047C0001340BB61BA69FB699A4240F058813B686B
:1047D0005B689A4A93425ED0984A934275D8984A49
:1047E000934258D0964A93426FD8964A934252D0F9
:1047F000944A934269D8944A93424CD0924A934245
:1048000063D8924A934246D0904A93425DD8122B85
:104810002AD8122B59D801A252F823F09748000841
:104820007148000883480008C5480008CB480008C4
:10483000CB480008CB480008CB480008CB4800080C
:10484000CB480008CB480008CB480008CB480008FC
:10485000CB480008CB480008CB480008CB480008EC
:10486000794800088D480008794A934213D02CE01B
:104870003B68DB683B6229E03B68DB6804333B62F2
:1048800024E03B68DB6808333B621FE03B68DB6881
:104890000C333B621AE03B689B68002B02D1042377
:1048A0003B6213E03B689B68012B05D108233B6208
:1048B0007B68FA691A6109E008233B627B68FA6940
:1048C0005A6103E000233B6200E000BFBB69FF2B9D
:1048D00001D87B6801E07B6804337B61BB69FF2BF7
:1048E00002D87B6A9B0002E07B6A083B9B003B612D
:1048F0007B691A680F213B6901FA03F3DB431A4015
:10490000396A3B6901FA03F31A437B691A603B6811
:104910005B6803F08053002B00F0B1804D4B9B6926
:104920004C4A43F0010393614A4B9B6903F0010336
:10493000BB60BB68484A7B6A9B08023352F823304D
:10494000FB607B6A03F003039B000F2202FA03F370
:10495000DB43FA681340FB607B68404A934213D004
:104960007B683F4A93420DD07B683E4A934207D012
:104970007B683D4A934201D1032306E0042304E00F
:10498000022302E0012300E000237A6A02F003021E
:1049900092009340FA681343FB602F497B6A9B089F
:1049A0000233FA6841F823203B685B6803F4801304
:1049B000002B06D02D4B9A682C49BB6913438B60A2
:1049C00006E02A4B9A68BB69DB43284913408B6099
:1049D0003B685B6803F40013002B06D0234BDA68B6
:1049E0002249BB691343CB6006E0204BDA68BB6900
:1049F000DB431E491340CB603B685B6803F4003324
:104A0000002B06D0194B5A681849BB6913434B60F9
:104A100006E0164B5A68BB69DB43144913404B60F0
:104A20003B685B6803F48033002B21D00F4B1A687E
:104A30000E49BB6913430B6021E000BF0000321038
:104A400000003110000022100000211000001210A0
:104A50000000111000100240000001400008014059
:104A6000000C01400010014000140140000401400E
:104A70000B4B1A68BB69DB43094913400B607B6A27
:104A800001337B623B681A687B6A22FA03F3002BCE
:104A90007FF48EAE00BF00BF2C37BD4680BC704790
:104AA0000004014080B485B000AF78600B467B8085
:104AB0007B689A687B881340002B02D00123FB732C
:104AC00001E00023FB73FB7B18461437BD4680BC16
:104AD000704780B483B000AF78600B467B8013468C
:104AE0007B707B78002B03D07A887B681A6103E0A7
:104AF0007B881A047B681A6100BF0C37BD4680BCF6
:104B00007047000080B400AF034B01221A6000BF61
:104B1000BD4680BC704700BF20000E4280B586B005
:104B200000AF78607B68002B01D1012372E27B68C3
:104B30001B6803F00103002B00F08780924B5B6839
:104B400003F00C03042B0CD08F4B5B6803F00C03B9
:104B5000082B12D18C4B5B6803F48033B3F5803F94
:104B60000BD1894B1B6803F40033002B6CD07B689E
:104B70005B68002B68D101234CE27B685B68B3F56E
:104B8000803F06D1804B1B687F4A43F4803313601B
:104B90002EE07B685B68002B0CD17B4B1B687A4A4C
:104BA00023F480331360784B1B68774A23F4802307
:104BB00013601DE07B685B68B3F5A02F0CD1724BCE
:104BC0001B68714A43F4802313606F4B1B686E4A65
:104BD00043F4803313600BE06B4B1B686A4A23F489
:104BE00080331360684B1B68674A23F4802313608B
:104BF0007B685B68002B13D0FFF780FA386108E010
:104C0000FFF77CFA02463B69D31A642B01D90323D0
:104C100000E25D4B1B6803F40033002BF0D014E07E
:104C2000FFF76CFA386108E0FFF768FA02463B6963
:104C3000D31A642B01D90323ECE1534B1B6803F413
:104C40000033002BF0D100E000BF7B681B6803F04D
:104C50000203002B63D04C4B5B6803F00C03002B6A
:104C60000BD0494B5B6803F00C03082B1CD1464B5F
:104C70005B6803F48033002B16D1434B1B6803F0B1
:104C80000203002B05D07B681B69012B01D0012397
:104C9000C0E13D4B1B6823F0F8027B685B69DB00D9
:104CA000394913430B603AE07B681B69002B20D025
:104CB000364B01221A60FFF721FA386108E0FFF74E
:104CC0001DFA02463B69D31A022B01D90323A1E145
:104CD0002D4B1B6803F00203002BF0D02A4B1B68FE
:104CE00023F0F8027B685B69DB00274913430B6004
:104CF00015E0264B00221A60FFF700FA386108E041
:104D0000FFF7FCF902463B69D31A022B01D90323B2
:104D100080E11D4B1B6803F00203002BF0D17B6880
:104D20001B6803F00803002B3AD07B689B69002BBB
:104D300019D0174B01221A60FFF7E0F9386108E03B
:104D4000FFF7DCF902463B69D31A022B01D9032392
:104D500060E10D4B5B6A03F00203002BF0D00120F1
:104D600000F0CEFA1CE00A4B00221A60FFF7C6F9E9
:104D700038610FE0FFF7C2F902463B69D31A022BF4
:104D800008D9032346E100BF001002400000424260
:104D900080044242924B5B6A03F00203002BE9D18C
:104DA0007B681B6803F00403002B00F0A68000233F
:104DB000FB758B4BDB6903F08053002B0DD1884BC7
:104DC000DB69874A43F08053D361854BDB6903F08D
:104DD0008053BB60BB680123FB75824B1B6803F4E7
:104DE0008073002B18D17F4B1B687E4A43F480737D
:104DF0001360FFF783F9386108E0FFF77FF9024697
:104E00003B69D31A642B01D9032303E1754B1B685B
:104E100003F48073002BF0D07B68DB68012B06D194
:104E20006F4B1B6A6E4A43F0010313622DE07B68EF
:104E3000DB68002B0CD16A4B1B6A694A23F0010323
:104E40001362674B1B6A664A23F0040313621CE07B
:104E50007B68DB68052B0CD1614B1B6A604A43F011
:104E6000040313625E4B1B6A5D4A43F00103136245
:104E70000BE05B4B1B6A5A4A23F001031362584B49
:104E80001B6A574A23F0040313627B68DB68002B1C
:104E900015D0FFF733F938610AE0FFF72FF9024622
:104EA0003B69D31A41F28832934201D90323B1E01E
:104EB0004B4B1B6A03F00203002BEED014E0FFF70C
:104EC0001DF938610AE0FFF719F902463B69D31A68
:104ED00041F28832934201D903239BE0404B1B6A85
:104EE00003F00203002BEED1FB7D012B05D13C4BDF
:104EF000DB693B4A23F08053D3617B68DB69002B7D
:104F000000F08780364B5B6803F00C03082B61D000
:104F10007B68DB69022B46D1334B00221A60FFF716
:104F2000EDF8386108E0FFF7E9F802463B69D31A6B
:104F3000022B01D903236DE0294B1B6803F000739A
:104F4000002BF0D17B681B6AB3F5803F08D1244B5E
:104F50005B6823F400327B689B68214913434B60F4
:104F60001F4B5B6823F474127B68196A7B685B6A69
:104F70000B431B4913434B601B4B01221A60FFF785
:104F8000BDF8386108E0FFF7B9F802463B69D31A6B
:104F9000022B01D903233DE0114B1B6803F0007382
:104FA000002BF0D035E0104B00221A60FFF7A6F876
:104FB000386108E0FFF7A2F802463B69D31A022BDA
:104FC00001D9032326E0064B1B6803F00073002B76
:104FD000F0D11EE07B68DB69012B07D1012319E0CA
:104FE0000010024000700040600042420B4B5B68C2
:104FF000FB60FB6803F480327B681B6A9A4206D12F
:10500000FB6803F470127B685B6A9A4201D001234B
:1050100000E0002318461837BD4680BD001002404E
:1050200080B584B000AF786039607B68002B01D117
:105030000123D0E06A4B1B6803F007033A689A42E9
:1050400010D9674B1B6823F0070265493B6813437F
:105050000B60634B1B6803F007033A689A4201D068
:105060000123B8E07B681B6803F00203002B20D00B
:105070007B681B6803F00403002B05D0594B5B6869
:10508000584A43F4E06353607B681B6803F00803ED
:10509000002B05D0534B5B68524A43F46053536076
:1050A000504B5B6823F0F0027B689B684D491343CB
:1050B0004B607B681B6803F00103002B40D07B68CA
:1050C0005B68012B07D1474B1B6803F40033002BAF
:1050D00015D101237FE07B685B68022B07D1414B30
:1050E0001B6803F00073002B09D1012373E03D4BD3
:1050F0001B6803F00203002B01D101236BE0394B45
:105100005B6823F003027B685B68364913434B609E
:10511000FEF7F4FFF8600AE0FEF7F0FF0246FB68D6
:10512000D31A41F28832934201D9032353E02D4B25
:105130005B6803F00C027B685B689B009A42EBD1D2
:10514000274B1B6803F007033A689A4210D2244B9E
:105150001B6823F0070222493B6813430B60204B76
:105160001B6803F007033A689A4201D0012332E03A
:105170007B681B6803F00403002B08D0194B5B68A5
:1051800023F4E0627B68DB68164913434B607B685D
:105190001B6803F00803002B09D0124B5B6823F453
:1051A00060527B681B69DB000E4913434B6000F0C3
:1051B00021F802460B4B5B681B0903F00F030A49F9
:1051C000CB5C22FA03F3094A1360094B1B681846AB
:1051D000FEF752FF002318461037BD4680BD00BFC2
:1051E00000200240001002401CF800086800002067
:1051F0006C00002080B487B000AF0023FB60002368
:10520000BB6000237B6100237B6000233B611E4B5E
:105210005B68FB60FB6803F00C03042B02D0082BD7
:1052200003D027E0194B3B6127E0FB689B0C03F0A0
:105230000F03174AD35C7B60FB6803F48033002BB9
:1052400010D0114B5B685B0C03F00103114AD35C77
:10525000BB607B680D4A03FB02F2BB68B2FBF3F351
:105260007B6104E07B680C4A02FB03F37B617B6992
:105270003B6102E0054B3B6100BF3B6918461C37B0
:10528000BD4680BC704700BF0010024000127A008B
:1052900040F8000850F8000800093D0080B400AF55
:1052A000024B1B681846BD4680BC70476800002052
:1052B00080B500AFFFF7F2FF0246054B5B681B0AA3
:1052C00003F007030349CB5C22FA03F3184680BDC1
:1052D000001002402CF8000880B500AFFFF7DEFF99
:1052E0000246054B5B68DB0A03F007030349CB5C0E
:1052F00022FA03F3184680BD001002402CF8000883
:1053000080B485B000AF78600A4B1B680A4AA2FBE4
:1053100003235B0A7A6802FB03F3FB6000BFFB68B0
:105320005A1EFA60002BF9D100BF00BF1437BD46EA
:1053300080BC704768000020D34D621080B586B0F5
:1053400000AF786000233B610023FB607B681B6833
:1053500003F00103002B7DD00023FB754F4BDB696D
:1053600003F08053002B0DD14C4BDB694B4A43F0CB
:105370008053D361494BDB6903F08053BB60BB684A
:105380000123FB75464B1B6803F48073002B18D177
:10539000434B1B68424A43F480731360FEF7AEFE32
:1053A000386108E0FEF7AAFE02463B69D31A642B77
:1053B00001D903236DE03A4B1B6803F48073002B83
:1053C000F0D0364B1B6A03F44073FB60FB68002B84
:1053D0002ED07B685B6803F44073FA689A4227D04A
:1053E0002E4B1B6A23F44073FB602E4B01221A6084
:1053F0002C4B00221A60294AFB681362FB6803F0F9
:105400000103002B14D0FEF779FE38610AE0FEF7A5
:1054100075FE02463B69D31A41F28832934201D9A4
:10542000032336E01D4B1B6A03F00203002BEED072
:105430001A4B1B6A23F440727B685B68174913435D
:105440000B62FB7D012B05D1144BDB69134A23F062
:105450008053D3617B681B6803F00203002B08D0E4
:105460000E4B5B6823F440427B689B680B491343F7
:105470004B607B681B6803F01003002B08D0074BC0
:105480005B6823F480027B68DB68044913434B604C
:10549000002318461837BD4680BD00BF00100240EB
:1054A000007000404004424280B588B000AF786090
:1054B00000237B610023FB6100233B610023FB6031
:1054C0000023BB617B68102B0AD07B68102B00F295
:1054D0008A807B68012B45D07B68022B75D082E0E7
:1054E000464B5B68FB60454B1B6803F08073002BE9
:1054F0007BD0FB689B0C03F00F03414AD35C3B61FC
:10550000FB6803F48033002B15D03C4B5B685B0CCD
:1055100003F001033B4AD35C7B61FB6803F48033F7
:10552000002B0DD0384A7B69B2FBF3F23B6902FBDA
:1055300003F3FB6104E03B69344A02FB03F3FB61C4
:105540002E4B5B6803F48003B3F5800F02D1FB6937
:10555000BB614AE0FB695B002D4AA2FB03235B08A9
:10556000BB6142E0254B1B6AFB60FB6803F44073A0
:10557000B3F5807F08D1FB6803F00203002B03D052
:105580004FF40043BB611FE0FB6803F44073B3F5C5
:10559000007F09D1194B5B6A03F00203002B03D093
:1055A00049F64043BB610FE0FB6803F44073B3F579
:1055B000407F1CD1114B1B6803F40033002B16D025
:1055C0004FF22443BB6112E011E0FFF785FE024673
:1055D0000A4B5B689B0B03F0030301335B00B2FBD8
:1055E000F3F3BB6104E000BF02E000BF00E000BFD6
:1055F000BB6918462037BD4680BD00BF0010024081
:1056000054F8000864F8000800127A0000093D0010
:10561000ABAAAAAA80B584B000AF78600023FB6073
:105620007B68002B01D101237AE07B685B7CDBB2D5
:10563000002B05D17B6800221A747868FEF7A6F962
:105640007B6802225A74786800F0BEF90346002B8A
:1056500004D07B6804225A74012361E0786800F06A
:1056600077FA0346002B04D07B6804225A74012386
:1056700056E07B681B685A687B681B6822F007024B
:105680005A607B689B68002B05D0274B1B6B264A12
:1056900023F001031363244BDB6A23F460727B68FD
:1056A0009B6821491343CB627B685B68B3F1FF3F82
:1056B00003D07B685B68FB600EE00120FFF7F4FE1F
:1056C000F860FB68002B04D17B6804225A74012324
:1056D00026E0FB68013BFB60FB681A0C7B681B68DB
:1056E00002F00F029A607B681B68FA6892B2DA6077
:1056F000786800F055FA0346002B04D07B6804223A
:105700005A7401230CE07B680022DA737B68012263
:105710005A737B6801229A737B6801225A740023B2
:1057200018461037BD4680BD006C004090B587B06C
:1057300000AFF860B9607A6000237B6100233B61B1
:10574000FB68002B02D0BB68002B01D1012380E055
:10575000FB681B7C012B01D102237AE0FB6801224C
:105760001A74FB6802225A747B68002B13D1BB6841
:105770001B781A464FF4616303FB02F2BB685B7847
:1057800019460B461B015B1A9B001344BA689278BA
:1057900013447B611EE0BB681B78184600F028FAB2
:1057A00003461A464FF4616303FB02F4BB685B785F
:1057B000184600F01DFA03461A4613461B019B1AB1
:1057C0009B001C44BB689B78184600F011FA034606
:1057D00023447B617969F86800F053F90346002B94
:1057E00007D0FB6804225A74FB6800221A74012354
:1057F0002FE0FB681B685A68FB681B6822F00502F3
:105800005A60F86800F064F938613B69B3F1FF3F12
:1058100018D03A697B699A4214D23B6903F5A833E0
:1058200003F5C0733B613969F86800F06AF9034613
:10583000002B07D0FB6804225A74FB6800221A74FC
:10584000012306E0FB6801225A74FB6800221A74E7
:10585000002318461C37BD4690BD000080B588B0B7
:1058600000AFF860B9607A600023FB610023BB6180
:1058700000237B61FB68002B02D0BB68002B01D1A9
:10588000012397E0FB681B7C012B01D1022391E0EF
:10589000FB6801221A74FB6802225A747B68002B91
:1058A0000CD1BB68DA78FB68DA73BB685A78FB689E
:1058B0005A73BB689A78FB689A731AE0BB68DB7806
:1058C000184600F095F903461A46FB68DA73BB6880
:1058D0005B78184600F08CF903461A46FB685A7349
:1058E000BB689B78184600F083F903461A46FB68AC
:1058F0009A73FB68DB7B1846FB68597BFB689B7BD4
:105900001A4600F093F903461A46FB681A73FB68BF
:105910001A7BBB681A70F86800F083F8F861FB69BD
:10592000264AA2FB0323DB0A7B617B69182B3AD949
:105930007B69234AA2FB03231B09224A02FB03F3D0
:10594000FA69D31AFB61F969F86800F09AF803461E
:10595000002B07D0FB6804225A74FB6800221A74DB
:10596000012327E0F86800F0B3F8B861BB69B3F130
:10597000FF3F18D0BA69FB699A4214D2BB6903F59C
:10598000A83303F5C073BB61B969F86800F0B9F8D2
:105990000346002B07D0FB6804225A74FB680022E0
:1059A0001A74012306E0FB6801225A74FB68002286
:1059B0001A74002318462037BD4680BDC5B3A29196
:1059C000ABAAAAAA8051010080B584B000AF78606C
:1059D0000023FB607B68002B01D101231DE07B6865
:1059E0001B685A687B681B6822F008025A60FEF741
:1059F00085FBF86009E0FEF781FB0246FB68D31ADD
:105A0000B3F57A7F01D9032307E07B681B685B68E5
:105A100003F00803002BEED0002318461037BD46D4
:105A200080BD80B487B000AF786000237B82002304
:105A30003B820023FB8100237B617B681B689B69A1
:105A40007B827B681B68DB69FB817B681B689B69C9
:105A50003B827A8A3B8A9A4208D03B8A1A047B6846
:105A60001B68DB699BB213437B6104E07B8A1A04E9
:105A7000FB8913437B617B6918461C37BD4680BC9C
:105A8000704780B584B000AF786039600023FB7345
:105A9000786800F05DF80346002B02D00123FB7309
:105AA00011E07B681B683A68120C9A617B681B687E
:105AB0003A6892B2DA61786800F072F80346002B17
:105AC00001D00123FB73FB7B18461037BD4680BD18
:105AD00080B485B000AF78600023FB810023BB81D8
