:020000040800F2
:10000000005000200138000839340008413400084D
:100010004934000851340008593400080000000039
:100020000000000000000000000000006134000833
:100030006D340008000000007934000885340008A1
:10004000493800084938000849380008493800088C
:10005000493800084938000849380008493800087C
:10006000493800084938000849380008493800086C
:100070004938000891340008493800084938000818
:10008000493800084938000849380008493800084C
:10009000493800084938000849380008493800083C
:1000A000493800084938000849380008493800082C
:1000B000493800084938000849380008493800081C
:1000C000493800084938000849380008493800080C
:1000D00049380008A53400084938000849380008A4
:1000E0004938000849380008493800080000000075
:1000F0000000000000000000000000000000000000
:0C01000000000000000000005FF808F1A3
:1001100010B5054C237833B9044B13B10448AFF341
:1001200000800123237010BD240200200000000085
:10013000749C000808B5034B1BB103490348AFF397
:10014000008008BD0000000028020020749C000808
:10015000034613F8012B002AFBD1181A0138704707
:1001600081F0004102E000BF83F0004330B54FEA68
:1001700041044FEA430594EA050F08BF90EA020FD5
:100180001FBF54EA000C55EA020C7FEA645C7FEA68
:10019000655C00F0E2804FEA5454D4EB5555B8BF8B
:1001A0006D420CDD2C4480EA020281EA030382EAFC
:1001B000000083EA010180EA020281EA0303362D8E
:1001C00088BF30BD11F0004F4FEA01314FF4801C61
:1001D0004CEA113102D0404261EB410113F0004F73
:1001E0004FEA03334CEA133302D0524263EB43032A
:1001F00094EA050F00F0A780A4F10104D5F1200EC8
:100200000DDB02FA0EFC22FA05F2801841F1000122
:1002100003FA0EF2801843FA05F359410EE0A5F1F6
:1002200020050EF1200E012A03FA0EFC28BF4CF027
:10023000020C43FA05F3C01851EBE37101F00045DD
:1002400007D54FF0000EDCF1000C7EEB00006EEBEA
:100250000101B1F5801F1BD3B1F5001F0CD3490874
:100260005FEA30004FEA3C0C04F101044FEA4452CB
:1002700012F5800F80F09A80BCF1004F08BF5FEA52
:10028000500C50F1000041EB045141EA050130BD32
:100290005FEA4C0C404141EB0101013C28BFB1F544
:1002A000801FE9D291F0000F04BF01460020B1FA8F
:1002B00081F308BF2033A3F10B03B3F120020CDA62
:1002C0000C3208DD02F1140CC2F10C0201FA0CF040
:1002D00021FA02F10CE002F11402D8BFC2F1200CA5
:1002E00001FA02F120FA0CFCDCBF41EA0C0190405B
:1002F000E41AA2BF01EB0451294330BD6FEA0404A4
:100300001F3C1CDA0C340EDC04F11404C4F120028E
:1003100020FA04F001FA02F340EA030021FA04F3A0
:1003200045EA030130BDC4F10C04C4F1200220FAF7
:1003300002F001FA04F340EA0300294630BD21FA35
:1003400004F0294630BD94F0000F83F4801306BFFB
:1003500081F480110134013D4EE77FEA645C18BFEF
:100360007FEA655C29D094EA050F08BF90EA020F86
:1003700005D054EA000C04BF1946104630BD91EA7E
:10038000030F1EBF0021002030BD5FEA545C05D181
:100390004000494128BF41F0004130BD14F58004C0
:1003A0003CBF01F5801130BD01F0004545F0FE4134
:1003B00041F470014FF0000030BD7FEA645C1ABF69
:1003C000194610467FEA655C1CBF0B46024650EAA0
:1003D000013406BF52EA033591EA030F41F40021CC
:1003E00030BD00BF90F0000F04BF0021704730B552
:1003F0004FF4806404F132044FF000054FF0000127
:1004000050E700BF90F0000F04BF0021704730B5E7
:100410004FF4806404F1320410F0004548BF4042BC
:100420004FF000013EE700BF42004FEAE2014FEA11
:1004300031014FEA02701FBF12F07F4393F07F4FEC
:1004400081F06051704732F07F4208BF704793F0EF
:100450007F4F04BF41F40021704730B54FF4607402
:1004600001F0004521F000411CE700BF50EA010205
:1004700008BF704730B54FF000050AE050EA0102AE
:1004800008BF704730B511F0004502D5404261EB1E
:1004900041014FF4806404F132045FEA915C3FF45F
:1004A000D8AE4FF003025FEADC0C18BF03325FEAFC
:1004B000DC0C18BF033202EBDC02C2F1200300FAAD
:1004C00003FC20FA02F001FA03FE40EA0E0021FAD2
:1004D00002F11444BDE600BF70B54FF0FF0C4CF4C0
:1004E000E06C1CEA11541DBF1CEA135594EA0C0F72
:1004F00095EA0C0F00F0DEF82C4481EA030621EAAD
:100500004C5123EA4C5350EA013518BF52EA0335E7
:1005100041F4801143F4801338D0A0FB02CE4FF099
:100520000005E1FB02E506F00042E0FB03E54FF0C9
:100530000006E1FB03569CF0000F18BF4EF0010EC1
:10054000A4F1FF04B6F5007F64F5407404D25FEABD
:100550004E0E6D4146EB060642EAC62141EA555170
:100560004FEAC52040EA5E504FEACE2EB4F1FD0CB2
:1005700088BFBCF5E06F1ED8BEF1004F08BF5FEA30
:10058000500E50F1000041EB045170BD06F00046E2
:1005900046EA010140EA020081EA0301B4EB5C048F
:1005A000C2BFD4EB0C0541EA045170BD41F4801187
:1005B0004FF0000E013C00F3AB8014F1360FDEBFAC
:1005C000002001F0004170BDC4F10004203C35DA88
:1005D0000C341BDC04F11404C4F1200500FA05F30B
:1005E00020FA04F001FA05F240EA020001F00042AC
:1005F00021F0004110EBD37021FA04F642EB060122
:100600005EEA430E08BF20EAD37070BDC4F10C044B
:10061000C4F1200500FA04F320FA05F001FA04F20F
:1006200040EA020001F0004110EBD37041F10001FB
:100630005EEA430E08BF20EAD37070BDC4F1200506
:1006400000FA05F24EEA020E20FA04F301FA05F26E
:1006500043EA020321FA04F001F0004121FA04F216
:1006600020EA020000EBD3705EEA430E08BF20EAE6
:10067000D37070BD94F0000F0FD101F00046400020
:1006800041EB010111F4801F08BF013CF7D041EAA2
:10069000060195F0000F18BF704703F000465200A6
:1006A00043EB030313F4801F08BF013DF7D043EA77
:1006B0000603704794EA0C0F0CEA135518BF95EA2D
:1006C0000C0F0CD050EA410618BF52EA4306D1D1B4
:1006D00081EA030101F000414FF0000070BD50EAD3
:1006E000410606BF1046194652EA430619D094EA5D
:1006F0000C0F02D150EA013613D195EA0C0F05D147
:1007000052EA03361CBF104619460AD181EA03019A
:1007100001F0004141F0FE4141F470014FF0000052
:1007200070BD41F0FE4141F4780170BD70B54FF0ED
:10073000FF0C4CF4E06C1CEA11541DBF1CEA13556D
:1007400094EA0C0F95EA0C0F00F0A7F8A4EB05044F
:1007500081EA030E52EA03354FEA013100F0888046
:100760004FEA03334FF0805545EA131343EA12630F
:100770004FEA022245EA111545EA10654FEA0026C4
:100780000EF000419D4208BF964244F1FD0404F57D
:10079000407402D25B084FEA3202B61A65EB0305D9
:1007A0005B084FEA32024FF480104FF4002CB6EB96
:1007B000020E75EB030E22BFB61A754640EA0C0016
:1007C0005B084FEA3202B6EB020E75EB030E22BF56
:1007D000B61A754640EA5C005B084FEA3202B6EB97
:1007E000020E75EB030E22BFB61A754640EA9C0056
:1007F0005B084FEA3202B6EB020E75EB030E22BF26
:10080000B61A754640EADC0055EA060E18D04FEAE3
:10081000051545EA16754FEA06164FEAC30343EA83
:1008200052734FEAC2025FEA1C1CC0D111F4801F50
:100830000BD141EA00014FF000004FF0004CB6E749
:1008400011F4801F04BF01430020B4F1FD0C88BFE8
:10085000BCF5E06F3FF6AFAEB5EB030C04BFB6EBF3
:10086000020C5FEA500C50F1000041EB045170BDE6
:100870000EF0004E4EEA113114EB5C04C2BFD4EB13
:100880000C0541EA045170BD41F480114FF0000E97
:10089000013C90E645EA060E8DE60CEA135594EA13
:1008A0000C0F08BF95EA0C0F3FF43BAF94EA0C0F16
:1008B0000AD150EA01347FF434AF95EA0C0F7FF48B
:1008C00025AF104619462CE795EA0C0F06D152EADF
:1008D00003353FF4FDAE1046194622E750EA4106C3
:1008E00018BF52EA43067FF4C5AE50EA41047FF4D4
:1008F0000DAF52EA43057FF4EBAE12E74FF0FF3C39
:1009000006E000BF4FF0010C02E000BF4FF0010C09
:100910004DF804CD4FEA410C7FEA6C5C4FEA430C82
:1009200018BF7FEA6C5C1BD001B050EA410C0CBFD1
:1009300052EA430C91EA030F02BF90EA020F002033
:10094000704710F1000F91EA030F58BF994208BF9A
:1009500090422CBFD8176FEAE37040F00100704757
:100960004FEA410C7FEA6C5C02D150EA013C07D1AE
:100970004FEA430C7FEA6C5CD6D152EA033CD3D0F9
:100980005DF8040B704700BF8446104662468C46F3
:100990001946634600E000BF01B5FFF7B7FF002826
:1009A00048BF10F1000F01BD4DF808EDFFF7F4FF4F
:1009B0000CBF012000205DF808FB00BF4DF808EDDA
:1009C000FFF7EAFF34BF012000205DF808FB00BFFD
:1009D0004DF808EDFFF7E0FF94BF012000205DF81F
:1009E00008FB00BF4DF808EDFFF7CEFF94BF0120D4
:1009F00000205DF808FB00BF4DF808EDFFF7C4FFCD
:100A000034BF012000205DF808FB00BF4FEA410C15
:100A10007FEA6C5C02D150EA013C0AD14FEA430CF8
:100A20007FEA6C5C02D152EA033C02D14FF0000035
:100A300070474FF0010070474FEA410212F5001273
:100A400015D211D56FF47873B3EB625212D94FEA15
:100A5000C12343F0004343EA505311F0004F23FAFF
:100A600002F018BF404270474FF00000704750EA54
:100A7000013005D111F0004008BF6FF00040704711
:100A80004FF00000704700BF4FEA4102B2F1E0436F
:100A900024BFB3F5001CDCF1FE5C0DD901F0004C65
:100AA0004FEAC0024CEA5070B2F1004F40EB8300B5
:100AB00008BF20F00100704711F0804F21D113F1E1
:100AC0003872BCBF01F00040704741F480114FEA1A
:100AD0005252C2F11802C2F1200C10FA0CF320FAA3
:100AE00002F018BF40F001004FEAC1234FEAD323C0
:100AF00003FA0CFC40EA0C0023FA02F34FEA43032A
:100B0000CCE77FEA625307D150EA01331EBF4FF0B2
:100B1000FE4040F44000704701F0004040F0FE40CD
:100B200040F40000704700BF80F0004002E000BFCA
:100B300081F0004142001FBF5FEA410392EA030FC8
:100B40007FEA226C7FEA236C6AD04FEA1262D2EB12
:100B50001363C1BFD218414048404140B8BF5B4217
:100B6000192B88BF704710F0004F40F4000020F0B0
:100B70007F4018BF404211F0004F41F4000121F0C6
:100B80007F4118BF494292EA030F3FD0A2F1010210
:100B900041FA03FC10EB0C00C3F1200301FA03F14E
:100BA00000F0004302D5494260EB4000B0F5000F71
:100BB00013D3B0F1807F06D340084FEA310102F130
:100BC0000102FE2A51D2B1F1004F40EBC25008BFE2
:100BD00020F0010040EA03007047490040EB0000AC
:100BE000013A28BFB0F5000FEDD2B0FA80FCACF1AD
:100BF000080CB2EB0C0200FA0CF0AABF00EBC250DA
:100C000052421843BCBFD0401843704792F0000FC7
:100C100081F4000106BF80F400000132013BB5E71A
:100C20004FEA41037FEA226C18BF7FEA236C21D090
:100C300092EA030F04D092F0000F08BF08467047F5
:100C400090EA010F1CBF0020704712F07F4F04D1C3
:100C5000400028BF40F00040704712F100723CBFD6
:100C600000F50000704700F0004343F0FE4040F400
:100C7000000070477FEA226216BF08467FEA2363BE
:100C80000146420206BF5FEA412390EA010F40F4A9
:100C9000800070474FF0000304E000BF10F00043F5
:100CA00048BF40425FEA000C08BF704743F09643DC
:100CB00001464FF000001CE050EA010208BF7047F7
:100CC0004FF000030AE000BF50EA010208BF70477E
:100CD00011F0004302D5404261EB41015FEA010C93
:100CE00002BF84460146002043F0B64308BFA3F18B
:100CF0008053A3F50003BCFA8CF2083AA3EBC2536D
:100D000010DB01FA02FC634400FA02FCC2F120028B
:100D1000BCF1004F20FA02F243EB020008BF20F0C2
:100D20000100704702F1200201FA02FCC2F1200228
:100D300050EA4C0021FA02F243EB020008BF20EA1D
:100D4000DC7070474FF0FF0C1CEAD0521EBF1CEA4B
:100D5000D15392EA0C0F93EA0C0F6FD01A4480EA39
:100D6000010C400218BF5FEA41211ED04FF0006322
:100D700043EA501043EA5111A0FB01310CF000404E
:100D8000B1F5000F3EBF490041EAD3715B0040EA74
:100D9000010062F17F02FD2A1DD8B3F1004F40EB44
:100DA000C25008BF20F00100704790F0000F0CF017
:100DB000004C08BF49024CEA502040EA51207F3ADB
:100DC000C2BFD2F1FF0340EAC250704740F40000B6
:100DD0004FF00003013A5DDC12F1190FDCBF00F0A7
:100DE00000407047C2F10002410021FA02F1C2F155
:100DF000200200FA02FC5FEA310040F1000053EAF1
:100E00004C0308BF20EADC70704792F0000F00F03E
:100E1000004C02BF400010F4000F013AF9D040EA44
:100E20000C0093F0000F01F0004C02BF490011F4D8
:100E3000000F013BF9D041EA0C018FE70CEAD153D6
:100E400092EA0C0F18BF93EA0C0F0AD030F0004C56
:100E500018BF31F0004CD8D180EA010000F000400A
:100E6000704790F0000F17BF90F0004F084691F0C8
:100E7000000F91F0004F14D092EA0C0F01D1420202
:100E80000FD193EA0C0F03D14B0218BF084608D1CB
:100E900080EA010000F0004040F0FE4040F4000015
:100EA000704740F0FE4040F4400070474FF0FF0CA8
:100EB0001CEAD0521EBF1CEAD15392EA0C0F93EAEF
:100EC0000C0F69D0A2EB030280EA010C49024FEA41
:100ED000402037D04FF0805343EA111143EA1013FA
:100EE0000CF000408B4238BF5B0042F17D024FF4B2
:100EF000000C8B4224BF5B1A40EA0C00B3EB510F8D
:100F000024BFA3EB510340EA5C00B3EB910F24BF75
:100F1000A3EB910340EA9C00B3EBD10F24BFA3EBFA
:100F2000D10340EADC001B0118BF5FEA1C1CE0D1C2
:100F3000FD2A3FF650AF8B4240EBC25008BF20F075
:100F4000010070470CF0004C4CEA50207F32C2BFC9
:100F5000D2F1FF0340EAC250704740F400004FF066
:100F60000003013A37E792F0000F00F0004C02BF97
:100F7000400010F4000F013AF9D040EA0C0093F061
:100F8000000F01F0004C02BF490011F4000F013BBB
:100F9000F9D041EA0C0195E70CEAD15392EA0C0F23
:100FA00008D142027FF47DAF93EA0C0F7FF470AF5B
:100FB000084676E793EA0C0F04D14B023FF44CAF9E
:100FC00008466EE730F0004C18BF31F0004CCAD133
:100FD00030F000427FF45CAF31F000437FF43CAF6F
:100FE0005FE700BF42000ED2B2F1FE4F0BD34FF0CD
:100FF0009E03B3EB126209D44FEA002343F000438F
:1010000023FA02F070474FF00000704712F1610FB1
:1010100001D1420202D14FF0FF3070474FF0000083
:10102000704700BF80B500AF00224FF480610248D6
:1010300003F04FF900BF80BD000C014080B500AF48
:1010400001224FF48061024803F043F900BF80BDE4
:10105000000C014080B500AF00220221064803F0D9
:1010600038F9052002F054FC01220221024803F065
:1010700030F900BF80BD00BF000C014080B582B0D8
:1010800000AF0346FB7100220121074803F021F95C
:10109000F91D4FF0FF330122044804F0C3FA00BFEA
:1010A0000837BD4680BD00BF000C0140C4020020CF
:1010B00080B584B000AF7860396001220121114809
:1010C00003F007F915E03B68B3F5004F28BF4FF474
:1010D0000043FB81FA894FF0FF3379680A4804F036
:1010E000A1FAFB897A6813447B60FB893A68D31ABA
:1010F0003B603B68002BE6D100BF00BF1037BD4608
:1011000080BD00BF000C0140C402002090B585B036
:1011100000AF0446084611461A462346FB800346A4
:10112000BB800B467B8013463B802A20FFF7A6FF3F
:10113000FB881B0A9BB2DBB23B73FB88DBB27B7381
:101140007B881B0A9BB2DBB2BB737B88DBB2FB7371
:1011500007F10C0304211846FFF7AAFF2B20FFF725
:101160008DFFBB881B0A9BB2DBB23B72BB88DBB234
:101170007B723B881B0A9BB2DBB2BB723B88DBB243
:10118000FB7207F1080304211846FFF791FF2C209A
:10119000FFF774FF00BF1437BD4690BD90B59BB0FC
:1011A00000AFFFF73FFFFFF755FF0120FFF766FF96
:1011B0004FF47A7002F0ACFBCB20FFF75FFF874A59
:1011C00007F1600392E8030018600433197007F117
:1011D000600305211846FFF76BFFCF20FFF74EFF96
:1011E0007F4A07F15C031268114619800233120C22
:1011F0001A7007F15C0303211846FFF759FFE82036
:10120000FFF73CFF774A07F158031268114619802F
:101210000233120C1A7007F1580303211846FFF726
:1012200047FFEA20FFF72AFF0023A7F8543007F111
:10123000540302211846FFF73BFFED20FFF71EFF86
:10124000694B3B6507F1500304211846FFF730FF57
:10125000F720FFF713FF202387F84C3007F14C03EA
:1012600001211846FFF724FFC020FFF707FF2323C3
:1012700087F8483007F1480301211846FFF718FFA7
:10128000C120FFF7FBFE102387F8443007F1440329
:1012900001211846FFF70CFFC520FFF7EFFE42F6CD
:1012A0003E03A7F8403007F1400302211846FFF73C
:1012B000FFFEC720FFF7E2FE862387F83C3007F1E8
:1012C0003C0301211846FFF7F3FE3620FFF7D6FE58
:1012D000482387F8383007F1380301211846FFF713
:1012E000E7FE3A20FFF7CAFE552387F8343007F1AE
:1012F000340301211846FFF7DBFEB120FFF7BEFEE5
:101300004FF4C0533B8607F1300302211846FFF724
:10131000CFFEB620FFF7B2FE344A07F12C03126865
:10132000114619800233120C1A7007F12C030321A5
:101330001846FFF7BDFEF220FFF7A0FE002387F856
:10134000283007F1280301211846FFF7B1FE2620B7
:10135000FFF794FE012387F8243007F124030121CD
:101360001846FFF7A5FEE020FFF788FE204B07F1A7
:1013700014040FCB07C4238002341B0C237007F125
:1013800014030F211846FFF793FEE120FFF776FEC6
:10139000184B3C1D0FCB07C4238002341B0C237059
:1013A0003B1D0F211846FFF783FE1120FFF766FE55
:1013B000782002F0ADFA2920FFF760FE3620FFF713
:1013C0005DFE48233B703B4601211846FFF770FE47
:1013D000FFF734FE00BF6C37BD4690BD909C0008FF
:1013E000989C00089C9C000864031281A09C000843
:1013F000A49C0008B49C000882B080B588B000AFFF
:10140000FB620346FB800B46BB801346FB7097F8DC
:101410002C301A46FB8813449BB2013B9AB297F8D2
:101420002D301946BB880B449BB2013B9BB2B98857
:10143000F888FFF76BFE0023FB6141E03A6BFB7815
:10144000203B97F82D1001FB03F31946FB690B4471
:101450005B0013441B887B610023BB6127E07A6932
:10146000BB6902FA03F303F40043002B0ED0BB8EDA
:101470001B0A9BB2DBB23B74BB8EDBB27B7407F101
:10148000100302211846FFF713FE0DE03B8F1B0AE5
:101490009BB2DBB23B733B8FDBB27B7307F10C0378
:1014A00002211846FFF704FEBB690133BB6197F8C0
:1014B0002C301A46BB699342D1D3FB690133FB61DF
:1014C00097F82D301A46FB699342B7D300BF00BF8F
:1014D0002037BD46BDE8804002B0704782B080B57D
:1014E00086B004AF3A607B610346FB800B46BB804D
:1014F000FFF798FD33E0FB883A7D13441F4A1288BA
:1015000092B2934216DB0023FB807B7D1A46BB8898
:101510001344BB80BB887A7D1344194A128892B267
:10152000934221DA3B681B78202B03D13B680133BF
:101530003B6014E03B681A78B988F8883B8C0293CA
:10154000BB8B0193BB6900937B69FFF755FF3B7D24
:101550001A46FB881344FB803B6801333B603B68C1
:101560001B78002BC7D100E000BFFFF767FD00BF6D
:101570000837BD46BDE8804002B070470200002039
:101580000000002090B585B000AF04460846114623
:101590001A462346FB800346BB800B467B801346DE
:1015A0003B80FFF73FFDFA887B8813449BB2013BE9
:1015B0009CB2BA883B8813449BB2013B9BB2B9886A
:1015C000F8882246FFF7A2FD3B8C1B0A9BB2DBB2D8
:1015D0003B733B8CDBB27B7301220121114802F08B
:1015E00078FE3B88BB8013E07B88FB800AE007F134
:1015F0000C014FF0FF3302220B4804F013F8FB8874
:10160000013BFB80FB88002BF1D1BB88013BBB80F9
:10161000BB88002BE8D1FFF711FD00BF1437BD4692
:1016200090BD00BF000C0140C402002080B584B012
:1016300002AF0346FB80084B1B889AB2074B1B88FE
:1016400099B2FB8800930B4600210020FFF79AFF18
:1016500000BF0837BD4680BD02000020000000200A
:1016600090B583B000AF0446084611461A4623469B
:10167000FB800346BB800B467B8013463B80214B9F
:101680001B889BB2FA889A4234D21F4B1B889BB2AC
:10169000BA889A422ED2FA887B881344194A128853
:1016A00092B2934228DCBA883B881344164A1288C7
:1016B00092B2934222DCFFF7B5FCFA887B88134490
:1016C0009BB2013B9CB2BA883B8813449BB2013B5E
:1016D0009BB2B988F8882246FFF718FD7B883A88C4
:1016E00002FB03F35B001946B869FFF7E1FCFFF763
:1016F000A5FC04E000BF02E000BF00E000BF0C3723
:10170000BD4690BD020000200000002080B483B0E0
:1017100000AF0346FB80084B1B6800225A6200BFE3
:10172000054B1B685A6AFB889A42F9D300BF00BF79
:101730000C37BD4680BC7047B803002080B586B02A
:1017400000AF0023FB753B1D00221A605A609A60AF
:10175000DA604FF400737B600123BB6002233B61BE
:101760000023FB603B1D19462C4802F017FC0022A9
:101770004FF40071294802F0ACFD142002F0C8F8C3
:1017800001224FF40071254802F0A3FD1E20FFF74F
:10179000BDFF0023BB600123FB603B1D19461F48B2
:1017A00002F0FCFB2820FFF7B1FF4FF400711B484B
:1017B00002F078FD0346002B0CD15020FFF7A6FF66
:1017C0004FF40071154802F06DFD0346002B01D067
:1017D0000123FB7502F092F80346114A136002F0F0
:1017E0008DF803460F4A136004E002F087F80346C1
:1017F0000C4A13604FF40071084802F053FD034691
:10180000002B06D0064B1B689A1C064B1B689A429D
:10181000EBD8FB7D18461837BD4680BD000C014053
:10182000500400205404002080B582B000AF002393
:10183000BB710023FB7166E002F060F80346364A94
:10184000136002F05BF80346344A136004E002F0D0
:1018500055F80346314A13604FF40071304802F0E6
:1018600021FD0346002B06D12B4B1B689A1C2B4BEA
:101870001B689A42EBD82820FFF748FF4FF400710D
:10188000274802F00FFD0346002B0ED1FB79C3F170
:101890000703012202FA03F35BB2DB435AB297F962
:1018A000063013405BB2BB710BE0FB79C3F1070359
:1018B000012202FA03F35AB297F9063013435BB2DE
:1018C000BB7102F01BF80346134A136002F016F8CE
:1018D0000346124A136004E002F010F803460F4A70
:1018E00013604FF400710E4802F0DCFC0346002B3D
:1018F00006D0094B1B689A1C084B1B689A42EBD810
:10190000FB790133FB71FB79072B95D9BB7918461D
:101910000837BD4680BD00BF50040020540400209D
:10192000000C014080B582B000AF7860702204499D
:10193000044804F0BCFD00BF0837BD4680BD00BFB1
:10194000400200200004002080B584B004AF4FF6B0
:101950003C6300932023C8224FF481711320FFF7CA
:1019600011FE4FF63C6300932023C822CB211320A5
:10197000FFF708FE4FF63C6300932023C822942112
:101980001320FFF7FFFD4FF63C6300932023C8228E
:101990005D211320FFF7F6FD304B4FF66062029297
:1019A00046F2FF7201925A6800921B682C4A0A2183
:1019B0007020FFF793FD2B4B4FF66062029246F2C8
:1019C000FF7201925A6800921B68274A2621302034
:1019D000FFF784FD214B4FF63C62029243F67402FE
:1019E00001925A6800921B68204A64213C20FFF74C
:1019F00075FD1A4B4FF63C62029243F67402019257
:101A00005A6800921B681A4A9B215220FFF766FD14
:101A1000124B4FF63C62029243F6740201925A68EE
:101A200000921B68134AD2216020FFF757FD0B4B31
:101A30004FF63C62029243F6740201925A68009299
:101A40001B680D4A40F209111920FFF747FD0B4BA7
:101A500001221A6000BFBD4680BD00BF0C000020FF
:101A6000E49C000814000020EC9C0008F89C00088E
:101A7000049D00080C9D0008109D00089010002097
:101A800090B58DB004AF3A1DBB1D1146184601F04C
:101A900003FE0346002B01F07980794B1B68002B75
:101AA00041F07480FB88BB2B40F23E82FB88C42B44
:101AB00000F23A82BB88082B40F23682BB88B3F52D
:101AC0009F7F00F231824FF47A7308226D496E488D
:101AD00004F062FC0020FFF7A9FD6C4B002202928B
:101AE0004FF6801201925A6800921B68684A0121E1
:101AF0006720FFF7F3FC674B00931823182201219E
:101B0000CE20FFF7ADFD08E20023FB61E7E1624A6A
:101B1000FB6952F82320614B1B681A44604B83FB1E
:101B2000021313449910D317C91A0B46DB005B1A32
:101B3000D31A3B61FB69002B40F0CC80594A3B69CA
:101B400052F823301A465849584805F05DFF4F4B6C
:101B5000002202924FF6FF7201925A6800921B68AF
:101B6000524A1E210520FFF7B9FC4B4AFB69063398
:101B70009B0013445B681A464D494E4805F044FFEC
:101B8000424B002202924FF6FF7201925A68009275
:101B90001B68484A1E213220FFF7A0FC464A4249F2
:101BA000464805F031FF464B002202924FF6FF7285
:101BB00001925A6800921B68404A1E214920FFF793
:101BC0008DFC354AFB690E3352F823301A463D49E5
:101BD000384805F019FF2D4B002202924FF6FF7294
:101BE00001925A6800921B68324A1E215020FFF76A
:101BF00075FC314A2C49314805F006FF304B002274
:101C000002924FF6FF7201925A6800921B682B4AAB
:101C10001E217120FFF762FC1F4AFB6914339B00F1
:101C200013445B681A462849224805F0EDFE174B1D
:101C3000002202924FF6FF7201925A6800921B68CE
:101C40001C4A37213220FFF749FC134AFB6906334F
:101C50009B0013445B68182B08DD1C4B009320236A
:101C600020221E218620FFF7FBFC35E1184B009354
:101C7000202320221E218620FFF7F2FC2CE100BF4A
:101C80008C10002024000020000400200C00002004
:101C90000C9D00087CEB000840020020881000200A
:101CA0009324499234000020249D0008880C0020D1
:101CB000289D0008880400202C9D0008880800202A
:101CC00004000020309D0008349D00087CC50008F9
:101CD0007CCD0008AD4A3B6952F823301A46AC4926
:101CE000AC4805F091FEFB699BB21A469200134482
:101CF0001A46D200D31A9BB2463399B2A64B0022A1
:101D000002924FF6FF7201925A6800921B68A14A34
:101D10000520FFF7E3FBA14AFB6906339B00134450
:101D20005B681A469E499F4805F06EFEFB699BB2B0
:101D30001A46920013441A46D200D31A9BB2463375
:101D400099B2954B002202924FF6FF7201925A68A7
:101D500000921B68934A3C20FFF7C0FB924A8C49D3
:101D6000924805F051FEFB699BB21A46920013445B
:101D70001A46D200D31A9BB2423399B2864B002244
:101D800002924FF6FF7201925A6800921B68874ACE
:101D90004B20FFF7A3FB814AFB690E3352F8233037
:101DA0001A467F497F4805F02FFEFB699BB21A4611
:101DB000920013441A46D200D31A9BB2463399B20A
:101DC000754B002202924FF6FF7201925A68009200
:101DD0001B68744A5A20FFF781FB734A6C497348A9
:101DE00005F012FEFB699BB21A46920013441A4694
:101DF000D200D31A9BB2423399B2674B00220292AF
:101E00004FF6FF7201925A6800921B68674A692078
:101E1000FFF764FB614AFB6914339B0013445B6862
:101E20001A4663495F4805F0EFFDFB699BB21A460D
:101E3000920013441A46D200D31A9BB2463399B289
:101E4000554B002202924FF6FF7201925A6800929F
:101E50001B68544AA420FFF741FB504AFB69063334
:101E60009B0013445B68182B12DDFB699BB21A467A
:101E7000920013441A46D200D31A9BB2413399B24E
:101E80004C4B0093102310222820FFF7E9FB11E0B0
:101E9000FB699BB21A46920013441A46D200D31A29
:101EA0009BB2413399B2444B009310231022282057
:101EB000FFF7D6FBFB699BB21A46920013441A4601
:101EC000D200D31A9BB2413399B23C4B00931023FA
:101ED00010228C20FFF7C4FBFB690133FB61FB6917
:101EE000062B7FF714AE3A1DBB1D1146184601F0B4
:101EF000D3FB0346002B10D0FB88032B0DD9FB88A6
:101F0000142B0AD8BB88B3F58E7F06D3BB88B3F5F4
:101F1000A07F02D82A4B01221A60294B1B68012B93
:101F20007FF4F2AD00F032BEFB884C2B40F25A82B7
:101F3000FB88632B00F25682BB88082B40F252824A
:101F4000BB88B3F59F7F00F24D824FF47A7308226D
:101F50001C491D4804F020FA0020FFF767FB1B4BCB
:101F6000002202924FF6801201925A6800921B687A
:101F7000174A01213220FFF7B1FA164B00931823BC
:101F800018220121CE20FFF76BFB25E23400002050
:101F9000249D0008880C002004000020400200203E
:101FA000289D0008880400202C9D00088808002037
:101FB000349D00087CE700087CE900087CE5000807
:101FC0008C1000201C000020000400200C000020C9
:101FD000F89C00087CEB00080023BB61DDE15C4A53
:101FE000BB6952F823205B4B1B681A445A4B83FB96
:101FF000021313449910D317C91A0B46DB005B1A5E
:10200000D31AFB60BB69002B40F0C280534AFB68C7
:1020100052F823301A465249524805F0F5FC524B0B
:10202000002202924FF6FF7201925A6800921B68DA
:102030004C4A1E210520FFF751FA454ABB69063379
:102040009B0013445B681A464849494805F0DCFC8C
:10205000454B002202924FF6FF7201925A6800929D
:102060001B68434A1E213220FFF738FA414A3C4997
:10207000414805F0C9FC414B002202924FF6FF7225
:1020800001925A6800921B683B4A1E214920FFF7C3
:1020900025FA2F4ABB690E3352F823301A463849C5
:1020A000334805F0B1FC304B002202924FF6FF722C
:1020B00001925A6800921B682D4A1E215020FFF79A
:1020C0000DFA2C4A26492C4805F09EFC2B4B002289
:1020D00002924FF6FF7201925A6800921B68264ADC
:1020E0001E217120FFF7FAF9194ABB6914339B00CE
:1020F00013445B681A4623491D4805F085FC1A4BBA
:10210000002202924FF6FF7201925A6800921B68F9
:10211000174A32213220FFF7E1F90D4ABB69063335
:102120009B0013445B68182B08DD174B009320239A
:1021300020221E218620FFF793FA2BE1134B0093F8
:10214000202320221E218620FFF78AFA22E100BFE9
:10215000400200208810002093244992340000207F
:10216000249D0008880C00200C000020289D0008F9
:10217000880400202C9D000888080020040000200E
:10218000309D0008349D00087CC500087CCD000807
:10219000AD4AFB6852F823301A46AC49AC4805F00A
:1021A00033FCBB699BB21A46920013441A46D20014
:1021B000D31A9BB2463399B2A64B002202924FF635
:1021C000FF7201925A6800921B68A14A0520FFF72E
:1021D00085F9A14ABB6906339B0013445B681A4624
:1021E0009E499F4805F010FCBB699BB21A469200BD
:1021F00013441A46D200D31A9BB2463399B2954B78
:10220000002202924FF6FF7201925A6800921B68F8
:10221000934A3C20FFF762F9924A8C49924805F0B4
:10222000F3FBBB699BB21A46920013441A46D200D4
:10223000D31A9BB2423399B2864B002202924FF6D8
:10224000FF7201925A6800921B68874A4B20FFF781
:1022500045F9814ABB690E3352F823301A467F494B
:102260007F4805F0D1FBBB699BB21A46920013442C
:102270001A46D200D31A9BB2463399B2754B00224C
:1022800002924FF6FF7201925A6800921B68744ADC
:102290005A20FFF723F9734A6C49734805F0B4FBE1
:1022A000BB699BB21A46920013441A46D200D31A55
:1022B0009BB2423399B2674B002202924FF6FF72F3
:1022C00001925A6800921B68674A6920FFF706F975
:1022D000614ABB6914339B0013445B681A46634927
:1022E0005F4805F091FBBB699BB21A46920013440C
:1022F0001A46D200D31A9BB2463399B2554B0022EC
:1023000002924FF6FF7201925A6800921B68544A7B
:10231000A420FFF7E3F8504ABB6906339B0013443F
:102320005B68182B12DDBB699BB21A4692001344FE
:102330001A46D200D31A9BB2413399B24C4B009348
:10234000102310222820FFF78BF911E0BB699BB204
:102350001A46920013441A46D200D31A9BB2413354
:1023600099B2444B0093102310222820FFF778F9EC
:10237000BB699BB21A46920013441A46D200D31A84
:102380009BB2413399B23C4B0093102310228C2016
:10239000FFF766F9BB690133BB61BB69062B7FF7A9
:1023A0001EAE3A1DBB1D1146184601F075F90346D5
:1023B000002B11D0FB88032B0ED9FB88142B0BD8D4
:1023C000BB88B3F58E7F07D3BB88B3F5A07F03D856
:1023D0002A4B02221A60D9E3284B1B68022B7FF498
:1023E000FBADD3E3FB88732B40F27682FB88B92BDD
:1023F00000F27282BB88082B40F26E82BB88B3F574
:102400009F7F00F269824FF47A7308221C491D48AD
:1024100003F0C2FF0020FFF709F91B4B00220292D4
:102420004FF6801201925A6800921B68174A0121E8
:102430005720FFF753F8164B009318231822012159
:10244000CE20FFF70DF925E234000020249D00087E
:10245000880C00200400002040020020289D000875
:10246000880400202C9D000888080020349D000866
:102470007CE700087CE900087CE500088C1000205F
:102480002C000020000400200C000020049D000807
:102490007CEB000800237B61DDE15C4A7B6952F83C
:1024A00023205B4B1B681A445A4B83FB02131344D3
:1024B0009910D317C91A0B46DB005B1AD31ABB60FD
:1024C0007B69002B40F0C280534ABB6852F823302E
:1024D0001A465249524805F097FA524B002202928E
:1024E0004FF6FF7201925A6800921B684C4A1E21F7
:1024F0000520FEF7F3FF454A7B6906339B00134432
:102500005B681A464849494805F07EFA454B002267
:1025100002924FF6FF7201925A6800921B68434A7A
:102520001E213220FEF7DAFF414A3C49414805F0BE
:102530006BFA414B002202924FF6FF7201925A68E9
:1025400000921B683B4A1E214920FEF7C7FF2F4A15
:102550007B690E3352F823301A463849334805F068
:1025600053FA304B002202924FF6FF7201925A68E2
:1025700000921B682D4A1E215020FEF7AFFF2C4A07
:1025800026492C4805F040FA2B4B002202924FF6C8
:10259000FF7201925A6800921B68264A1E21712020
:1025A000FEF79CFF194A7B6914339B0013445B6858
:1025B0001A4623491D4805F027FA1A4B00220292B9
:1025C0004FF6FF7201925A6800921B68174A322137
:1025D0003220FEF783FF0D4A7B6906339B001344CC
:1025E0005B68182B08DD174B0093202320221E2147
:1025F0008620FFF735F82BE1134B00932023202290
:102600001E218620FFF72CF822E100BF40020020A7
:10261000881000209324499234000020249D000853
:10262000880C00200C000020289D00088804002051
:102630002C9D00088808002004000020309D000820
:10264000349D00087CC500087CCD0008944ABB6816
:1026500052F823301A469349934805F0D5F97B691F
:102660009BB21A46920013441A46D200D31A9BB268
:10267000463399B28D4B002202924FF6FF720192BF
:102680005A6800921B68884A0520FEF727FF884A8F
:102690007B6906339B0013445B681A46854986486C
:1026A00005F0B2F97B699BB21A46920013441A46B0
:1026B000D200D31A9BB2463399B27C4B00220292CD
:1026C0004FF6FF7201925A6800921B687A4A3C20CA
:1026D000FEF704FF794A7349794805F095F97B695B
:1026E0009BB21A46920013441A46D200D31A9BB2E8
:1026F000423399B26D4B002202924FF6FF72019263
:102700005A6800921B686E4A4B20FEF7E7FE684A43
:102710007B690E3352F823301A466649664805F045
:1027200073F97B699BB21A46920013441A46D20091
:10273000D31A9BB2463399B25C4B002202924FF6F9
:10274000FF7201925A6800921B685B4A5A20FEF79A
:10275000C5FE5A4A53495A4805F056F97B699BB25F
:102760001A46920013441A46D200D31A9BB242333F
:1027700099B24E4B002202924FF6FF7201925A68B4
:1027800000921B684E4A6920FEF7A8FE484A7B6902
:1027900014339B0013445B681A464A49464805F0C7
:1027A00033F97B699BB21A46920013441A46D20051
:1027B000D31A9BB2463399B23C4B002202924FF699
:1027C000FF7201925A6800921B683B4AA420FEF7F0
:1027D00085FE374A7B6906339B0013445B68182BE0
:1027E00012DD7B699BB21A46920013441A46D2004E
:1027F000D31A9BB2413399B2334B0093102310226A
:102800002820FEF72DFF11E07B699BB21A4692004B
:1028100013441A46D200D31A9BB2413399B22B4BC0
:102820000093102310222820FEF71AFF7B699BB229
:102830001A46920013441A46D200D31A9BB241336F
:1028400099B2234B0093102310228C20FEF708FF2F
:102850007B6901337B617B69062B7FF71EAE3A1DD6
:10286000BB1D1146184600F017FF0346002B11D080
:10287000FB88032B0ED9FB88142B0BD8BB88B3F530
:102880008E7F07D3BB88B3F5A07F03D8114B0222FC
:102890001A607BE10F4B1B68022B7FF4FBAD75E1E7
:1028A00034000020249D0008880C00200400002033
:1028B00040020020289D0008880400202C9D00086C
:1028C00088080020349D00087CE700087CE90008A7
:1028D0007CE500088C100020FB88C92B40F2568153
:1028E000FB88E72B00F25281BB88082B40F24E8117
:1028F000BB88B3F59F7F00F249810020FEF796FE6A
:10290000A44B0093182318220121CE20FEF7A8FE25
:10291000A14B002202924FF6FF7201925A68009278
:102920001B689E4A5D212020FEF7D8FD9C4B00933A
:102930002023202281212E20FEF792FE964B00229A
:1029400002924FF6FF7201925A6800921B68954AF4
:10295000AF213820FEF7C2FD934B009320232022A5
:10296000D3212E20FEF77CFE0BE1FEF7E7FE0346A7
:10297000002B00F0EB80FEF757FF03461A468B4B07
:102980001A70FEF751FF03461A46894B1A70FEF77C
:102990004BFF03461A46874B1A70FEF745FF034666
:1029A0001A46854B1A70FEF73FFF03461A46834BC3
:1029B0001A707E4B1B781A467D4B1B7813447D4A58
:1029C000127813447C4A127813447C4A127893425A
:1029D00040F0BC80774B1B781846FEF75BF9044645
:1029E000754B1B781846FDF70DFD4FF00002744B38
:1029F000FDF79CFE02460B4610461946FEF744F8CA
:102A0000034619462046FEF795F803461A466D4BD5
:102A10001A606C4B1B686C491846FEF793F9034625
:102A20006A491846FEF742FA03464FF084411846B9
:102A3000FEF780F803461A46654B1A605B4B1B781D
:102A40001846FEF727F90446594B1B781846FDF740
:102A5000D9FC4FF000025A4BFDF768FE02460B46C8
:102A600010461946FEF710F8034619462046FEF7B1
:102A700061F803461A46574B1A60554B1B681846B7
:102A8000FEF7B0FA0346DAB2534B1A70504B1B688C
:102A900052491846FEF756F903461C464E4B1B7822
:102AA0001A4613469B0013445B001846FEF7F6F8DF
:102AB000034619462046FEF73BF803461846FEF744
:102AC00091FA0346DAB2464B1A703A4B1B781A4613
:102AD000394B1B784349444804F096FF2E4B0022A3
:102AE00002924FF6FF7201925A6800921B683E4AAA
:102AF00083215820FEF7F2FC3C4A3D493D4804F052
:102B000083FF3D4B002202924FF6FF7201925A68FA
:102B100000921B68374A8021A920FEF7DFFC234B77
:102B20001B781A46224B1B7834492F4804F06CFF5F
:102B3000194B002202924FF6FF7201925A680092DE
:102B40001B68294ADC215820FEF7C8FC3A1DBB1D32
:102B50001146184600F0A0FD0346002B11D0FB885B
:102B6000032B0ED9FB88142B0BD8BB88B3F58E7FB3
:102B700007D3BB88B3F5A07F03D8214B03221A608B
:102B800004E01F4B1B68032B7FF4EFAE2437BD46D8
:102B900090BD00BF7CEB0008140000203C9D0008A5
:102BA0007CDD0008489D00087CD500084804002012
:102BB000490400204A0400204B0400204C0400205B
:102BC0000000244058040020000010410000A040F4
:102BD0005C04002060040020640400200000204108
:102BE00065040020549D0008680400202C9D000806
:102BF000249D0008880800200C0000205C9D00082F
:102C00008C10002080B582B000AF3A1DBB1D11466C
:102C1000184600F041FD0346002B23D0FB88032B10
:102C200020D9FB88142B1DD8BB88B3F58E7F19D310
:102C3000BB88B3F5A07F15D80C4B1B68012B07D0C0
:102C40000A4B1B68022B03D0084B1B68032B09D1CE
:102C50004FF66060FEF7EAFC044B00221A60044B5A
:102C600000221A6000BF0837BD4680BD8C100020CE
:102C70009010002080B500AF00F0E8FD00F03AF8B9
:102C800000F0E0F900F0C0F900F0D8F800F042F9E7
:102C900000F090F900F008F900F086F8104803F011
:102CA000B7F8FEF77BFA4FF66060FEF7BFFC7022C4
:102CB0000C490D4803F0FBFB0C4B1B68002B05D1A6
:102CC0000B4B1B68002B01D1FEF73EFEFEF7D8FE32
:102CD000FFF798FF4FF47A7000F01AFEECE700BFA0
:102CE000B803002040020020000400208C100020C7
:102CF0009010002080B594B000AF07F1280328227F
:102D00000021184604F0E3FE07F1140300221A60C4
:102D10005A609A60DA601A613B1D00221A605A609C
:102D20009A60DA600A23BB620123BB631023FB6352
:102D300001233B6402237B640023BB644FF46013D4
:102D4000FB6407F12803184601F0E8FA0346002B5C
:102D500001D000F0E3F90F237B610223BB61002364
:102D6000FB614FF480633B6200237B6207F1140335
:102D70000221184601F054FD0346002B01D000F05B
:102D8000CDF901237B604FF40073BB603B1D1846F7
:102D900001F0D4FE0346002B01D000F0BFF900BFC4
:102DA0005037BD4680BD000080B582B000AF3B1DEE
:102DB00000210A461A800A469A7000233B601D4B88
:102DC0001D4A1A601B4B4FF0FF325A60194B00220C
:102DD0009A60184802F01EF80346002B01D000F05C
:102DE0009DF90F233B711C237B710023BB713B1D9D
:102DF000002219460F4802F099F80346002B01D033
:102E000000F08CF901233B7011237B701223BB70FF
:102E10001823FB703B4600221946064802F01EF9B3
:102E20000346002B01D000F079F900BF0837BD46FA
:102E300080BD00BFB00200200028004080B500AF78
:102E4000174B184A1A60164B4FF482725A60144B93
:102E500000229A60124B0022DA60114B00221A61A4
:102E60000F4B00225A610E4B4FF400729A610C4BCB
:102E70000822DA610A4B00221A62094B00225A62C8
:102E8000074B00229A62064B0A22DA62044802F0DB
:102E900045FB0346002B01D000F040F900BF80BD88
:102EA000C40200200030014080B500AF174B184A23
:102EB0001A60164B4FF482725A60144B00229A60CB
:102EC000124B0022DA60114B00221A610F4B0022D4
:102ED0005A610E4B4FF400729A610C4B0822DA6172
:102EE0000A4B00221A62094B00225A62074B002249
:102EF0009A62064B0A22DA62044802F00FFB03468C
:102F0000002B01D000F00AF900BF80BD1C03002097
:102F10000038004080B586B000AF07F108030022FA
:102F20001A605A609A60DA603B4600221A605A6062
:102F30001E4B1F4A1A601D4B47225A601B4B002232
:102F40009A601A4B4FF6FF72DA60184B00221A6132
:102F5000164B00225A61154B00229A61134802F069
:102F600008FF0346002B01D000F0D8F84FF480533F
:102F7000BB6007F1080319460C4802F093FF0346B3
:102F8000002B01D000F0CAF800233B6000237B60D7
:102F90003B461946054803F051F90346002B01D082
:102FA00000F0BCF800BF1837BD4680BDB803002054
:102FB000002C014080B500AF114B124A1A60104B33
:102FC0004FF416525A600E4B00229A600C4B0022AE
:102FD000DA600B4B00221A61094B0C225A61084B34
:102FE00000229A61064B0022DA61054803F084F959
:102FF0000346002B01D000F091F800BF80BD00BF58
:10300000000400200038014080B582B000AF0C4BB6
:103010005B690B4A43F001035361094B5B6903F0A1
:1030200001037B607B68002200210D2000F06BFD16
:103030000D2000F084FD00BF0837BD4680BD00BFF5
:103040000010024080B588B000AF07F110030022E5
:103050001A605A609A60DA602D4B9B692C4A43F0E3
:10306000200393612A4B9B6903F02003FB60FB68FC
:10307000274B9B69264A43F004039361244B9B69C9
:1030800003F00403BB60BB68214B9B69204A43F0FB
:10309000080393611E4B9B6903F008037B607B6808
:1030A000012210211B4801F014F9002240F20361B3
:1030B000194801F00EF908233B6100237B610023CE
:1030C000BB6107F110031946124800F067FF102397
:1030D0003B6101237B610023BB610223FB6107F19C
:1030E000100319460B4800F059FF40F203633B619F
:1030F00001237B610023BB610223FB6107F1100305
:103100001946054800F04AFF00BF2037BD4680BD84
:103110000010024000080140000C014080B400AFE4
:1031200072B600BF00BFFDE780B485B000AF154B9D
:103130009B69144A43F001039361124B9B6903F0AE
:103140000103BB60BB680F4BDB690E4A43F0805341
:10315000D3610C4BDB6903F080537B607B680A4BC7
:103160005B68FB60FB6823F0E063FB60FB6843F097
:103170000073FB60044AFB68536000BF1437BD4610
:1031800080BC7047001002400000014080B584B050
:1031900000AF78607B681B680B4A934210D101F046
:1031A000B1F80A4BDB69094A43F00063D361074B6E
:1031B000DB6903F00063FB60FB68054B01221A60CA
:1031C00000BF1037BD4680BD0028004000100240FF
:1031D0003C04424280B58AB000AF786007F1180322
:1031E00000221A605A609A60DA607B681B684B4A5A
:1031F000934257D14A4B9B69494A43F480539361A8
:10320000474B9B6903F480537B617B69444B9B690B
:10321000434A43F004039361414B9B6903F0040369
:103220003B613B69A023BB610223FB6103237B62FB
:1032300007F1180319463B4800F0B0FE4023BB617C
:103240000023FB6100233B6207F118031946354850
:1032500000F0A4FE344B354A1A60334B10225A60FA
:10326000314B00229A60304B8022DA602E4B0022D4
:103270001A612D4B00225A612B4B00229A612A4B76
:103280004FF44052DA61284800F074FC0346002BEA
:1032900001D0FFF743FF7B68234A9A64224A7B6888
:1032A000536236E07B681B68214A934231D11C4B44
:1032B000DB691B4A43F48043D361194BDB6903F498
:1032C0008043FB60FB68164B9B69154A43F008037B
:1032D0009361134B9B6903F00803BB60BB684FF419
:1032E0002043BB610223FB6103237B6207F11803C8
:1032F0001946104800F052FE4FF48043BB61002392
:10330000FB6100233B6207F118031946094800F0EE
:1033100045FE00BF2837BD4680BD00BF00300140DC
:1033200000100240000801407403002030000240F9
:1033300000380040000C014080B485B000AF7860D8
:103340007B681B68094A93420BD1094B9B69084A69
:1033500043F400639361064B9B6903F40063FB60D5
:10336000FB6800BF1437BD4680BC7047002C01408D
:103370000010024080B58AB000AF786007F11403F6
:1033800000221A605A609A60DA607B681B68264ADD
:10339000934245D1254B9B69244A43F48043936172
:1033A000224B9B6903F480433B613B691F4B9B6944
:1033B0001E4A43F0080393611C4B9B6903F008030A
:1033C000FB60FB6840237B610223BB6103233B62FC
:1033D00007F114031946164800F0E0FD80237B61D5
:1033E0000023BB610023FB6107F114031946104859
:1033F00000F0D4FD0F4B5B687B627B6A43F0E063B7
:103400007B627B6A43F004037B620A4A7B6A5360F7
:1034100000220021252000F076FB252000F08FFB04
:1034200000BF2837BD4680BD003801400010024073
:10343000000C01400000014080B400AF00BFFDE778
:1034400080B400AF00BFFDE780B400AF00BFFDE770
:1034500080B400AF00BFFDE780B400AF00BFFDE760
:1034600080B400AF00BFBD4680BC704780B400AFE1
:1034700000BFBD4680BC704780B400AF00BFBD46F2
:1034800080BC704780B500AF00F026FA00BF80BD59
:1034900080B500AF024800F07BFC00BF80BD00BFDC
:1034A0007403002080B500AF024803F025F800BF88
:1034B00080BD00BF0004002080B400AF0123184687
:1034C000BD4680BC704780B582B000AF786039607F
:1034D00004F050FB034616221A604FF0FF331846E3
:1034E0000837BD4680BD80B582B000AF78604FF030
:1034F000FF317868FFF7E7FF00BFFDE780B586B0D2
:1035000000AFF860B9607A6000237B610AE0AFF336
:1035100000800146BB685A1CBA60CAB21A707B6947
:1035200001337B617A697B689A42F0DB7B681846DD
:103530001837BD4680BD80B586B000AFF860B96071
:103540007A6000237B6109E0BB685A1CBA601B7873
:103550001846AFF300807B6901337B617A697B6831
:103560009A42F1DB7B6818461837BD4680BD80B4AF
:1035700083B000AF78604FF0FF3318460C37BD467C
:1035800080BC704780B483B000AF786039603B681E
:103590004FF400525A60002318460C37BD4680BCD9
:1035A000704780B483B000AF7860012318460C37B1
:1035B000BD4680BC704780B485B000AFF860B9608C
:1035C0007A60002318461437BD4680BC704700005F
:1035D00080B586B000AF7860144A154BD31A7B6172
:1035E0007B693B61134B1B68002B02D1114B124AC4
:1035F0001A60104B1A687B6813443A699A4207D2E2
:1036000004F0B8FA03460C221A604FF0FF3309E0C9
:10361000084B1B68FB60074B1A687B681344054A1C
:103620001360FB6818461837BD4680BD0050002067
:103630000004000094100020E811002080B400AFC6
:1036400000BFBD4680BC704780B500AF002210218E
:10365000024800F03EFE00BF80BD00BF00080140F0
:1036600080B500AF01221021024800F032FE00BFF9
:1036700080BD00BF0008014080B500AF08210548AB
:1036800000F010FE0346002B0CBF01230023DBB229
:10369000184680BD0008014080B58CB002AF78604C
:1036A0003960FFF7D1FF00237B6200233B620023D8
:1036B000FB770023BB773FE0FFF7DEFF034683F095
:1036C0000103DBB2002B3BD1FB7F0133FB774FF0D3
:1036D000FF3301224449454801F0A4FF07F11002DD
:1036E0004FF0FF33009302234149404802F0DEF8D7
:1036F0004FF0FF3301223F493C4801F093FF07F1AF
:103700000C024FF0FF33009302233949374802F08F
:10371000CDF83B7B1B027A7B13431A467B6A13442A
:103720007B623B7C1B027A7C13431A463B6A134440
:103730003B62BB7F0133BB77BB7F0F2BBCD900E063
:1037400000BFFFF78DFFFB7F0F2B01D8002347E061
:103750007B6A1B09BB61BB6940F2DB52934202D812
:1037600040F2DC53BB61BB6947F61812934202D9A1
:1037700047F61813BB613B6A1B097B617B6940F606
:10378000CB42934202D840F6CC437B617B6947F23F
:103790009E52934202D947F29E537B61BA69134607
:1037A0001B019B1A1B01A3F5AF23A3F5C863124AA3
:1037B000A2FB03239B0B9AB27B681A807A6913469B
:1037C0009B0013449B01A3F57F23A3F570635B0863
:1037D0000A4AA2FB03239B0A9AB23B681A80012380
:1037E00018462837BD4680BD14F000081C03002091
:1037F00018F000081CF0000827072E8E55C7891303
:10380000FFF71CFF0B480C490C4A002302E0D45878
:10381000C4500433C4188C42F9D3094A094C00231C
:1038200001E013600432A242FBD304F0A9F9FFF7D0
:1038300021FA70470000002024020020C8F300088D
:1038400024020020E8110020FEE7000080B500AF50
:10385000084B1B68074A43F010031360032000F075
:1038600047F90F2000F008F8FFF75EFC0023184628
:1038700080BD00BF0020024080B582B000AF7860FC
:10388000124B1A68124B1B7819464FF47A73B3FB2C
:10389000F1F3B2FBF3F3184600F05FF90346002B97
:1038A00001D001230EE07B680F2B0AD80022796833
:1038B0004FF0FF3000F027F9064A7B6813600023C1
:1038C00000E0012318460837BD4680BD50000020A7
:1038D000580000205400002080B400AF054B1B7836
:1038E0001A46054B1B681344034A136000BFBD46CC
:1038F00080BC7047580000209810002080B400AFB2
:10390000024B1B681846BD4680BC704798100020CB
:1039100080B584B000AF7860FFF7F0FFB8607B68D7
:10392000FB60FB68B3F1FF3F05D00A4B1B781A46DA
:10393000FB681344FB6000BFFFF7E0FF0246BB6873
:10394000D31AFA689A42F7D800BF00BF1037BD46B5
:1039500080BD00BF5800002080B485B000AF786003
:103960007B6803F00703FB600C4BDB68BB60BA6845
:103970004FF6FF031340BB60FB681A02BB6813439A
:1039800043F0BF6343F40033BB60044ABB68D360B9
:1039900000BF1437BD4680BC704700BF00ED00E09B
:1039A00080B400AF044BDB681B0A03F00703184622
:1039B000BD4680BC704700BF00ED00E080B483B01E
:1039C00000AF0346FB7197F90730002B0BDBFB7947
:1039D00003F01F02064997F907305B09012000FA3E
:1039E00002F241F8232000BF0C37BD4680BC70476F
:1039F00000E100E080B483B000AF03463960FB71A2
:103A000097F90730002B0ADB3B68DAB20C4997F9CB
:103A100007301201D2B20B4483F800230AE03B685E
:103A2000DAB20849FB7903F00F03043B1201D2B26A
:103A30000B441A7600BF0C37BD4680BC704700BFF0
:103A400000E100E000ED00E080B489B000AFF86074
:103A5000B9607A60FB6803F00703FB61FB69C3F19F
:103A60000703042B28BF0423BB61FB690433062B27
:103A700002D9FB69033B00E000237B614FF0FF327A
:103A8000BB6902FA03F3DA43BB681A407B699A40C8
:103A90004FF0FF317B6901FA03F3D9437B680B4098
:103AA000134318462437BD4680BC704780B582B0AA
:103AB00000AF78607B68013BB3F1807F01D30123C5
:103AC0000FE00A4A7B68013B53600F214FF0FF3043
:103AD000FFF790FF054B00229A60044B07221A6003
:103AE000002318460837BD4680BD00BF10E000E047
:103AF00080B582B000AF78607868FFF72DFF00BF17
:103B00000837BD4680BD80B586B000AF0346B960BA
:103B10007A60FB7300237B61FFF742FF78617A686C
:103B2000B9687869FFF790FF024697F90F301146A0
:103B30001846FFF75FFF00BF1837BD4680BD80B550
:103B400082B000AF0346FB7197F907301846FFF7C4
:103B500035FF00BF0837BD4680BD80B582B000AFDD
:103B600078607868FFF7A2FF034618460837BD461D
:103B700080BD000080B485B000AF78600023FB609A
:103B80007B68002B01D1012343E07B681B681A4648
:103B9000224B1344224AA2FB03231B099A007B6891
:103BA0001A647B681F4ADA637B68022283F821204B
:103BB0007B681B681B68FB60FB6823F47F5323F062
:103BC0003003FB607B685A687B689B681A437B689C
:103BD000DB681A437B681B691A437B685B691A437D
:103BE0007B689B691A437B68DB691343FA6813435C
:103BF000FB607B681B68FA681A607B6800229A6326
:103C00007B68012283F821207B68002283F8202032
:103C1000002318461437BD4680BC7047F8FFFDBF2F
:103C2000CDCCCCCC0000024080B485B000AF786031
:103C30000023FB737B6893F82130DBB2022B08D0A2
:103C40007B6804229A637B68002283F8202001238A
:103C500020E07B681B681A687B681B6822F00E02F4
:103C60001A607B681B681A687B681B6822F0010277
:103C70001A607B681A6C7B68DB6B012101FA02F227
:103C80005A607B68012283F821207B68002283F838
:103C90002020FB7B18461437BD4680BC70470000CF
:103CA00080B584B000AF78600023FB737B6893F825
:103CB0002130DBB2022B05D07B6804229A630123FA
:103CC000FB7351E07B681B681A687B681B6822F0F5
:103CD0000E021A607B681B681A687B681B6822F0FA
:103CE00001021A607B681B68224A934229D07B68D4
:103CF0001B68214A934222D07B681B681F4A93426B
:103D00001AD07B681B681E4A934212D07B681B68DE
:103D10001C4A93420AD07B681B681B4A934202D11B
:103D20004FF480130EE04FF080730BE04FF48033BC
:103D300008E04FF4805305E04FF4807302E0102355
:103D400000E00123114A53607B68012283F821209F
:103D50007B68002283F820207B685B6B002B03D0FC
:103D60007B685B6B78689847FB7B18461037BD46CD
:103D700080BD00BF080002401C000240300002402D
:103D800044000240580002406C0002400000024023
:103D900080B584B000AF78607B68DB6B1B68FB602C
:103DA0007B681B681B68BB607B681B6C04229A40A5
:103DB000FB681340002B4FD0BB6803F00403002BBB
:103DC0004AD07B681B681B6803F02003002B07D1D7
:103DD0007B681B681A687B681B6822F004021A6003
:103DE0007B681B68664A934229D07B681B68654ADA
:103DF000934222D07B681B68634A93421AD07B6847
:103E00001B68624A934212D07B681B68604A9342E7
:103E10000AD07B681B685F4A934202D14FF480034B
:103E20000EE04FF080630BE04FF4802308E04FF486
:103E3000804305E04FF4806302E0402300E0042368
:103E4000554A53607B68DB6A002B00F094807B68E6
:103E5000DB6A786898478EE07B681B6C02229A4088
:103E6000FB681340002B56D0BB6803F00203002B05
:103E700051D07B681B681B6803F02003002B0BD11B
:103E80007B681B681A687B681B6822F00A021A604C
:103E90007B68012283F821207B681B68384A9342A3
:103EA00029D07B681B68374A934222D07B681B6805
:103EB000354A93421AD07B681B68344A934212D029
:103EC0007B681B68324A93420AD07B681B68314A80
:103ED000934202D14FF400130EE04FF000730BE059
:103EE0004FF4003308E04FF4005305E04FF4007343
:103EF00002E0202300E00223274A53607B6800226F
:103F000083F820207B689B6A002B34D07B689B6AF7
:103F1000786898472FE07B681B6C08229A40FB6802
:103F20001340002B28D0BB6803F00803002B23D0DC
:103F30007B681B681A687B681B6822F00E021A6097
:103F40007B681A6C7B68DB6B012101FA02F25A6014
:103F50007B6801229A637B68012283F821207B68B9
:103F6000002283F820207B681B6B002B04D07B6829
:103F70001B6B7868984700BF00BF1037BD4680BDF7
:103F8000080002401C000240300002404400024091
:103F9000580002406C0002400000024080B48BB028
:103FA00000AF7860396000237B6200233B6269E1E7
:103FB00001227B6A02FA03F3FB613B681B68FA6922
:103FC0001340BB61BA69FB699A4240F058813B6873
:103FD0005B689A4A93425ED0984A934275D8984A51
:103FE000934258D0964A93426FD8964A934252D001
:103FF000944A934269D8944A93424CD0924A93424D
:1040000063D8924A934246D0904A93425DD8122B8D
:104010002AD8122B59D801A252F823F09740000851
:104020007140000883400008C5400008CB400008EC
:10403000CB400008CB400008CB400008CB40000834
:10404000CB400008CB400008CB400008CB40000824
:10405000CB400008CB400008CB400008CB40000814
:10406000794000088D400008794A934213D02CE033
:104070003B68DB683B6229E03B68DB6804333B62FA
:1040800024E03B68DB6808333B621FE03B68DB6889
:104090000C333B621AE03B689B68002B02D104237F
:1040A0003B6213E03B689B68012B05D108233B6210
:1040B0007B68FA691A6109E008233B627B68FA6948
:1040C0005A6103E000233B6200E000BFBB69FF2BA5
:1040D00001D87B6801E07B6804337B61BB69FF2BFF
:1040E00002D87B6A9B0002E07B6A083B9B003B6135
:1040F0007B691A680F213B6901FA03F3DB431A401D
:10410000396A3B6901FA03F31A437B691A603B6819
:104110005B6803F08053002B00F0B1804D4B9B692E
:104120004C4A43F0010393614A4B9B6903F001033E
:10413000BB60BB68484A7B6A9B08023352F8233055
:10414000FB607B6A03F003039B000F2202FA03F378
:10415000DB43FA681340FB607B68404A934213D00C
:104160007B683F4A93420DD07B683E4A934207D01A
:104170007B683D4A934201D1032306E0042304E017
:10418000022302E0012300E000237A6A02F0030226
:1041900092009340FA681343FB602F497B6A9B08A7
:1041A0000233FA6841F823203B685B6803F480130C
:1041B000002B06D02D4B9A682C49BB6913438B60AA
:1041C00006E02A4B9A68BB69DB43284913408B60A1
:1041D0003B685B6803F40013002B06D0234BDA68BE
:1041E0002249BB691343CB6006E0204BDA68BB6908
:1041F000DB431E491340CB603B685B6803F400332C
:10420000002B06D0194B5A681849BB6913434B6001
:1042100006E0164B5A68BB69DB43144913404B60F8
:104220003B685B6803F48033002B21D00F4B1A6886
:104230000E49BB6913430B6021E000BF0000321040
:1042400000003110000022100000211000001210A8
:104250000000111000100240000001400008014061
:10426000000C014000100140001401400004014016
:104270000B4B1A68BB69DB43094913400B607B6A2F
:1042800001337B623B681A687B6A22FA03F3002BD6
:104290007FF48EAE00BF00BF2C37BD4680BC704798
:1042A0000004014080B485B000AF78600B467B808D
:1042B0007B689A687B881340002B02D00123FB7334
:1042C00001E00023FB73FB7B18461437BD4680BC1E
:1042D000704780B483B000AF78600B467B80134694
:1042E0007B707B78002B03D07A887B681A6103E0AF
:1042F0007B881A047B681A6100BF0C37BD4680BCFE
:104300007047000080B400AF034B01221A6000BF69
:10431000BD4680BC704700BF20000E4280B586B00D
:1043200000AF78607B68002B01D1012372E27B68CB
:104330001B6803F00103002B00F08780924B5B6841
:1043400003F00C03042B0CD08F4B5B6803F00C03C1
:10435000082B12D18C4B5B6803F48033B3F5803F9C
:104360000BD1894B1B6803F40033002B6CD07B68A6
:104370005B68002B68D101234CE27B685B68B3F576
:10438000803F06D1804B1B687F4A43F48033136023
:104390002EE07B685B68002B0CD17B4B1B687A4A54
:1043A00023F480331360784B1B68774A23F480230F
:1043B00013601DE07B685B68B3F5A02F0CD1724BD6
:1043C0001B68714A43F4802313606F4B1B686E4A6D
:1043D00043F4803313600BE06B4B1B686A4A23F491
:1043E00080331360684B1B68674A23F48023136093
:1043F0007B685B68002B13D0FFF780FA386108E018
:10440000FFF77CFA02463B69D31A642B01D90323D8
:1044100000E25D4B1B6803F40033002BF0D014E086
:10442000FFF76CFA386108E0FFF768FA02463B696B
:10443000D31A642B01D90323ECE1534B1B6803F41B
:104440000033002BF0D100E000BF7B681B6803F055
:104450000203002B63D04C4B5B6803F00C03002B72
:104460000BD0494B5B6803F00C03082B1CD1464B67
:104470005B6803F48033002B16D1434B1B6803F0B9
:104480000203002B05D07B681B69012B01D001239F
:10449000C0E13D4B1B6823F0F8027B685B69DB00E1
:1044A000394913430B603AE07B681B69002B20D02D
:1044B000364B01221A60FFF721FA386108E0FFF756
:1044C0001DFA02463B69D31A022B01D90323A1E14D
:1044D0002D4B1B6803F00203002BF0D02A4B1B6806
:1044E00023F0F8027B685B69DB00274913430B600C
:1044F00015E0264B00221A60FFF700FA386108E049
:10450000FFF7FCF902463B69D31A022B01D90323BA
:1045100080E11D4B1B6803F00203002BF0D17B6888
:104520001B6803F00803002B3AD07B689B69002BC3
:1045300019D0174B01221A60FFF7E0F9386108E043
:10454000FFF7DCF902463B69D31A022B01D903239A
:1045500060E10D4B5B6A03F00203002BF0D00120F9
:1045600000F0CEFA1CE00A4B00221A60FFF7C6F9F1
:1045700038610FE0FFF7C2F902463B69D31A022BFC
:1045800008D9032346E100BF001002400000424268
:1045900080044242924B5B6A03F00203002BE9D194
:1045A0007B681B6803F00403002B00F0A680002347
:1045B000FB758B4BDB6903F08053002B0DD1884BCF
:1045C000DB69874A43F08053D361854BDB6903F095
:1045D0008053BB60BB680123FB75824B1B6803F4EF
:1045E0008073002B18D17F4B1B687E4A43F4807385
:1045F0001360FFF783F9386108E0FFF77FF902469F
:104600003B69D31A642B01D9032303E1754B1B6863
:1046100003F48073002BF0D07B68DB68012B06D19C
:104620006F4B1B6A6E4A43F0010313622DE07B68F7
:10463000DB68002B0CD16A4B1B6A694A23F001032B
:104640001362674B1B6A664A23F0040313621CE083
:104650007B68DB68052B0CD1614B1B6A604A43F019
:10466000040313625E4B1B6A5D4A43F0010313624D
:104670000BE05B4B1B6A5A4A23F001031362584B51
:104680001B6A574A23F0040313627B68DB68002B24
:1046900015D0FFF733F938610AE0FFF72FF902462A
:1046A0003B69D31A41F28832934201D90323B1E026
:1046B0004B4B1B6A03F00203002BEED014E0FFF714
:1046C0001DF938610AE0FFF719F902463B69D31A70
:1046D00041F28832934201D903239BE0404B1B6A8D
:1046E00003F00203002BEED1FB7D012B05D13C4BE7
:1046F000DB693B4A23F08053D3617B68DB69002B85
:1047000000F08780364B5B6803F00C03082B61D008
:104710007B68DB69022B46D1334B00221A60FFF71E
:10472000EDF8386108E0FFF7E9F802463B69D31A73
:10473000022B01D903236DE0294B1B6803F00073A2
:10474000002BF0D17B681B6AB3F5803F08D1244B66
:104750005B6823F400327B689B68214913434B60FC
:104760001F4B5B6823F474127B68196A7B685B6A71
:104770000B431B4913434B601B4B01221A60FFF78D
:10478000BDF8386108E0FFF7B9F802463B69D31A73
:10479000022B01D903233DE0114B1B6803F000738A
:1047A000002BF0D035E0104B00221A60FFF7A6F87E
:1047B000386108E0FFF7A2F802463B69D31A022BE2
:1047C00001D9032326E0064B1B6803F00073002B7E
:1047D000F0D11EE07B68DB69012B07D1012319E0D2
:1047E0000010024000700040600042420B4B5B68CA
:1047F000FB60FB6803F480327B681B6A9A4206D137
:10480000FB6803F470127B685B6A9A4201D0012353
:1048100000E0002318461837BD4680BD0010024056
:1048200080B584B000AF786039607B68002B01D11F
:104830000123D0E06A4B1B6803F007033A689A42F1
:1048400010D9674B1B6823F0070265493B68134387
:104850000B60634B1B6803F007033A689A4201D070
:104860000123B8E07B681B6803F00203002B20D013
:104870007B681B6803F00403002B05D0594B5B6871
:10488000584A43F4E06353607B681B6803F00803F5
:10489000002B05D0534B5B68524A43F4605353607E
:1048A000504B5B6823F0F0027B689B684D491343D3
:1048B0004B607B681B6803F00103002B40D07B68D2
:1048C0005B68012B07D1474B1B6803F40033002BB7
:1048D00015D101237FE07B685B68022B07D1414B38
:1048E0001B6803F00073002B09D1012373E03D4BDB
:1048F0001B6803F00203002B01D101236BE0394B4D
:104900005B6823F003027B685B68364913434B60A6
:10491000FEF7F4FFF8600AE0FEF7F0FF0246FB68DE
:10492000D31A41F28832934201D9032353E02D4B2D
:104930005B6803F00C027B685B689B009A42EBD1DA
:10494000274B1B6803F007033A689A4210D2244BA6
:104950001B6823F0070222493B6813430B60204B7E
:104960001B6803F007033A689A4201D0012332E042
:104970007B681B6803F00403002B08D0194B5B68AD
:1049800023F4E0627B68DB68164913434B607B6865
:104990001B6803F00803002B09D0124B5B6823F45B
:1049A00060527B681B69DB000E4913434B6000F0CB
:1049B00021F802460B4B5B681B0903F00F030A4901
:1049C000CB5C22FA03F3094A1360094B1B681846B3
:1049D000FEF752FF002318461037BD4680BD00BFCA
:1049E0000020024000100240FCEF000850000020B0
:1049F0005400002080B487B000AF0023FB60002388
:104A0000BB6000237B6100237B6000233B611E4B66
:104A10005B68FB60FB6803F00C03042B02D0082BDF
:104A200003D027E0194B3B6127E0FB689B0C03F0A8
:104A30000F03174AD35C7B60FB6803F48033002BC1
:104A400010D0114B5B685B0C03F00103114AD35C7F
:104A5000BB607B680D4A03FB02F2BB68B2FBF3F359
:104A60007B6104E07B680C4A02FB03F37B617B699A
:104A70003B6102E0054B3B6100BF3B6918461C37B8
:104A8000BD4680BC704700BF0010024000127A0093
:104A900020F0000830F0000800093D0080B400AFAD
:104AA000024B1B681846BD4680BC70475000002072
:104AB00080B500AFFFF7F2FF0246054B5B681B0AAB
:104AC00003F007030349CB5C22FA03F3184680BDC9
:104AD000001002400CF0000880B500AFFFF7DEFFC9
:104AE0000246054B5B68DB0A03F007030349CB5C16
:104AF00022FA03F3184680BD001002400CF00008B3
:104B000080B485B000AF78600A4B1B680A4AA2FBEC
:104B100003235B0A7A6802FB03F3FB6000BFFB68B8
:104B20005A1EFA60002BF9D100BF00BF1437BD46F2
:104B300080BC704750000020D34D621080B586B015
:104B400000AF786000233B610023FB607B681B683B
:104B500003F00103002B7DD00023FB754F4BDB6975
:104B600003F08053002B0DD14C4BDB694B4A43F0D3
:104B70008053D361494BDB6903F08053BB60BB6852
:104B80000123FB75464B1B6803F48073002B18D17F
:104B9000434B1B68424A43F480731360FEF7AEFE3A
:104BA000386108E0FEF7AAFE02463B69D31A642B7F
:104BB00001D903236DE03A4B1B6803F48073002B8B
:104BC000F0D0364B1B6A03F44073FB60FB68002B8C
:104BD0002ED07B685B6803F44073FA689A4227D052
:104BE0002E4B1B6A23F44073FB602E4B01221A608C
:104BF0002C4B00221A60294AFB681362FB6803F001
:104C00000103002B14D0FEF779FE38610AE0FEF7AD
:104C100075FE02463B69D31A41F28832934201D9AC
:104C2000032336E01D4B1B6A03F00203002BEED07A
:104C30001A4B1B6A23F440727B685B681749134365
:104C40000B62FB7D012B05D1144BDB69134A23F06A
:104C50008053D3617B681B6803F00203002B08D0EC
:104C60000E4B5B6823F440427B689B680B491343FF
:104C70004B607B681B6803F01003002B08D0074BC8
:104C80005B6823F480027B68DB68044913434B6054
:104C9000002318461837BD4680BD00BF00100240F3
:104CA000007000404004424280B588B000AF786098
:104CB00000237B610023FB6100233B610023FB6039
:104CC0000023BB617B68102B0AD07B68102B00F29D
:104CD0008A807B68012B45D07B68022B75D082E0EF
:104CE000464B5B68FB60454B1B6803F08073002BF1
:104CF0007BD0FB689B0C03F00F03414AD35C3B6104
:104D0000FB6803F48033002B15D03C4B5B685B0CD5
:104D100003F001033B4AD35C7B61FB6803F48033FF
:104D2000002B0DD0384A7B69B2FBF3F23B6902FBE2
:104D300003F3FB6104E03B69344A02FB03F3FB61CC
:104D40002E4B5B6803F48003B3F5800F02D1FB693F
:104D5000BB614AE0FB695B002D4AA2FB03235B08B1
:104D6000BB6142E0254B1B6AFB60FB6803F44073A8
:104D7000B3F5807F08D1FB6803F00203002B03D05A
:104D80004FF40043BB611FE0FB6803F44073B3F5CD
:104D9000007F09D1194B5B6A03F00203002B03D09B
:104DA00049F64043BB610FE0FB6803F44073B3F581
:104DB000407F1CD1114B1B6803F40033002B16D02D
:104DC0004FF22443BB6112E011E0FFF785FE02467B
:104DD0000A4B5B689B0B03F0030301335B00B2FBE0
:104DE000F3F3BB6104E000BF02E000BF00E000BFDE
:104DF000BB6918462037BD4680BD00BF0010024089
:104E000034F0000844F0000800127A0000093D0068
:104E1000ABAAAAAA80B584B000AF78600023FB607B
:104E20007B68002B01D101237AE07B685B7CDBB2DD
:104E3000002B05D17B6800221A747868FEF7A6F96A
:104E40007B6802225A74786800F0BEF90346002B92
:104E500004D07B6804225A74012361E0786800F072
:104E600077FA0346002B04D07B6804225A7401238E
:104E700056E07B681B685A687B681B6822F0070253
:104E80005A607B689B68002B05D0274B1B6B264A1A
:104E900023F001031363244BDB6A23F460727B6805
:104EA0009B6821491343CB627B685B68B3F1FF3F8A
:104EB00003D07B685B68FB600EE00120FFF7F4FE27
:104EC000F860FB68002B04D17B6804225A7401232C
:104ED00026E0FB68013BFB60FB681A0C7B681B68E3
:104EE00002F00F029A607B681B68FA6892B2DA607F
:104EF000786800F055FA0346002B04D07B68042242
:104F00005A7401230CE07B680022DA737B6801226B
:104F10005A737B6801229A737B6801225A740023BA
:104F200018461037BD4680BD006C004090B587B074
:104F300000AFF860B9607A6000237B6100233B61B9
:104F4000FB68002B02D0BB68002B01D1012380E05D
:104F5000FB681B7C012B01D102237AE0FB68012254
:104F60001A74FB6802225A747B68002B13D1BB6849
:104F70001B781A464FF4616303FB02F2BB685B784F
:104F800019460B461B015B1A9B001344BA689278C2
:104F900013447B611EE0BB681B78184600F028FABA
:104FA00003461A464FF4616303FB02F4BB685B7867
:104FB000184600F01DFA03461A4613461B019B1AB9
:104FC0009B001C44BB689B78184600F011FA03460E
:104FD00023447B617969F86800F053F90346002B9C
:104FE00007D0FB6804225A74FB6800221A7401235C
:104FF0002FE0FB681B685A68FB681B6822F00502FB
:105000005A60F86800F064F938613B69B3F1FF3F1A
:1050100018D03A697B699A4214D23B6903F5A833E8
:1050200003F5C0733B613969F86800F06AF903461B
:10503000002B07D0FB6804225A74FB6800221A7404
:10504000012306E0FB6801225A74FB6800221A74EF
:10505000002318461C37BD4690BD000080B588B0BF
:1050600000AFF860B9607A600023FB610023BB6188
:1050700000237B61FB68002B02D0BB68002B01D1B1
:10508000012397E0FB681B7C012B01D1022391E0F7
:10509000FB6801221A74FB6802225A747B68002B99
:1050A0000CD1BB68DA78FB68DA73BB685A78FB68A6
:1050B0005A73BB689A78FB689A731AE0BB68DB780E
:1050C000184600F095F903461A46FB68DA73BB6888
:1050D0005B78184600F08CF903461A46FB685A7351
:1050E000BB689B78184600F083F903461A46FB68B4
:1050F0009A73FB68DB7B1846FB68597BFB689B7BDC
:105100001A4600F093F903461A46FB681A73FB68C7
:105110001A7BBB681A70F86800F083F8F861FB69C5
:10512000264AA2FB0323DB0A7B617B69182B3AD951
:105130007B69234AA2FB03231B09224A02FB03F3D8
:10514000FA69D31AFB61F969F86800F09AF8034626
:10515000002B07D0FB6804225A74FB6800221A74E3
:10516000012327E0F86800F0B3F8B861BB69B3F138
:10517000FF3F18D0BA69FB699A4214D2BB6903F5A4
:10518000A83303F5C073BB61B969F86800F0B9F8DA
:105190000346002B07D0FB6804225A74FB680022E8
:1051A0001A74012306E0FB6801225A74FB6800228E
:1051B0001A74002318462037BD4680BDC5B3A2919E
:1051C000ABAAAAAA8051010080B584B000AF786074
:1051D0000023FB607B68002B01D101231DE07B686D
:1051E0001B685A687B681B6822F008025A60FEF749
:1051F00085FBF86009E0FEF781FB0246FB68D31AE5
:10520000B3F57A7F01D9032307E07B681B685B68ED
:1052100003F00803002BEED0002318461037BD46DC
:1052200080BD80B487B000AF786000237B8200230C
:105230003B820023FB8100237B617B681B689B69A9
:105240007B827B681B68DB69FB817B681B689B69D1
:105250003B827A8A3B8A9A4208D03B8A1A047B684E
:105260001B68DB699BB213437B6104E07B8A1A04F1
:10527000FB8913437B617B6918461C37BD4680BCA4
:10528000704780B584B000AF786039600023FB734D
:10529000786800F05DF80346002B02D00123FB7311
:1052A00011E07B681B683A68120C9A617B681B6886
:1052B0003A6892B2DA61786800F072F80346002B1F
:1052C00001D00123FB73FB7B18461037BD4680BD20
:1052D00080B485B000AF78600023FB810023BB81E0
:1052E0007B681B681B6AFB817B681B685B6ABB81F0
:1052F000FB891A04BB89134318461437BD4680BC8A
:10530000704780B584B000AF786039600023FB73CC
:10531000786800F01DF80346002B02D00123FB73D0
:1053200011E07B681B683A68120C1A627B681B6884
:105330003A6892B25A62786800F032F80346002B5D
:1053400001D00123FB73FB7B18461037BD4680BD9F
:1053500080B584B000AF78600023FB60FEF7CEFA22
:10536000F86009E0FEF7CAFA0246FB68D31AB3F503
:105370007A7F01D903230FE07B681B685B6803F029
:105380002003002BEED07B681B685A687B681B6883
:1053900042F010025A60002318461037BD4680BD07
:1053A00080B584B000AF78600023FB607B681B6829
:1053B0005A687B681B6822F010025A60FEF79EFA5A
:1053C000F86009E0FEF79AFA0246FB68D31AB3F5D3
:1053D0007A7F01D9032307E07B681B685B6803F0D1
:1053E0002003002BEED0002318461037BD4680BDA9
:1053F00080B485B000AF0346FB710023FB60FB79EE
:105400001B09DBB21A4613469B0013445B00FB608A
:10541000FB7903F00F03DAB2FB68DBB21344DBB2B3
:1054200018461437BD4680BC7047000080B485B074
:1054300000AF78600B46FB701346BB700023BB6067
:105440000023FB607B6803F5FA63BB60FB78022BEB
:105450002DD8FA7813465B001344DB009B1A2C4AC4
:10546000A2FB03235A08BB781A44BB681A44BB68E2
:10547000013B9B081A44BB68013B2649A1FB03136F
:105480005B09D21ABB68013B2249A1FB0313DB096C
:1054900013441A1D204BA3FB0213D11A49080B44D5
:1054A00099080B46DB005B1AD31AFB6029E0FA78F7
:1054B00013465B001344DB009B1A154AA2FB03232F
:1054C0005A08BB781A44BB681A44BB689B081A4444
:1054D000BB681049A1FB03135B09D21ABB680D49D5
:1054E000A1FB0313DB0913449A1C0B4BA3FB021310
:1054F000D11A49080B4499080B46DB005B1AD31AF2
:10550000FB60FB68DBB218461437BD4680BC7047B1
:10551000398EE3381F85EB512549922480B582B03E
:1055200000AF78607B68002B01D1012376E07B68B7
:105530005B6A002B08D17B685B68B3F5827F09D07A
:105540007B680022DA6105E07B6800221A617B68D3
:1055500000225A617B6800229A627B6893F851307E
:10556000DBB2002B06D17B68002283F850207868DC
:10557000FDF730FE7B68022283F851207B681B68B0
:105580001A687B681B6822F040021A607B685B68BF
:1055900003F482727B689B6803F404431A437B68BC
:1055A000DB6803F400631A437B681B6903F00203A2
:1055B0001A437B685B6903F001031A437B689B69AC
:1055C00003F400731A437B68DB6903F038031A4362
:1055D0007B681B6A03F0800342EA03017B689B6AD5
:1055E00003F400527B681B680A431A607B689B695E
:1055F0001A0C7B681B6802F004025A607B681B6807
:10560000DA697B681B6822F40062DA617B68002239
:105610005A657B68012283F8512000231846083719
:10562000BD4680BD80B588B000AFF860B9603B6012
:105630001346FB80FEF762F9F861FB887B83FB6809
:1056400093F85130DBB2012B01D002232AE1BB6871
:10565000002B02D0FB88002B01D1012322E1FB6843
:1056600093F85030012B01D102231BE1FB6801228A
:1056700083F85020FB68032283F85120FB68002246
:105680005A65FB68BA681A63FB68FA889A86FB68F1
:10569000FA88DA86FB6800229A63FB6800229A8700
:1056A000FB680022DA87FB6800225A64FB6800224C
:1056B0001A64FB689B68B3F5004F0FD1FB681B6849
:1056C0001A68FB681B6822F040021A60FB681B68BE
:1056D0001A68FB681B6842F480421A60FB681B680A
:1056E0001B6803F04003402B07D0FB681B681A6857
:1056F000FB681B6842F040021A60FB68DB68B3F588
:10570000006F52D1FB685B68002B02D07B8B012BB2
:1057100045D1FB681B6B1A88FB681B68DA60FB6865
:105720001B6B9A1CFB681A63FB68DB8E9BB2013B08
:105730009AB2FB68DA8632E0FB681B689B6803F06C
:105740000203022B12D1FB681B6B1A88FB681B68D3
:10575000DA60FB681B6B9A1CFB681A63FB68DB8EC4
:105760009BB2013B9AB2FB68DA8618E0FEF7C6F8F6
:105770000246FB69D31A3A689A4203D83B68B3F1F0
:10578000FF3F02D13B68002B09D1FB68012283F85F
:105790005120FB68002283F85020032382E0FB683D
:1057A000DB8E9BB2002BC7D153E0FB685B68002BFC
:1057B00002D07B8B012B47D1FB681A6BFB681B68FF
:1057C0000C3312781A70FB681B6B5A1CFB681A6347
:1057D000FB68DB8E9BB2013B9AB2FB68DA8633E052
:1057E000FB681B689B6803F00203022B13D1FB6864
:1057F0001A6BFB681B680C3312781A70FB681B6B02
:105800005A1CFB681A63FB68DB8E9BB2013B9AB2A1
:10581000FB68DA8618E0FEF771F80246FB69D31AD6
:105820003A689A4203D83B68B3F1FF3F02D13B6824
:10583000002B09D1FB68012283F85120FB6800226C
:1058400083F8502003232DE0FB68DB8E9BB2002BF6
:10585000C6D1FA693968F86800F05AFA0346002B95
:1058600002D0FB6820225A65FB689B68002B0AD196
:1058700000237B61FB681B68DB687B61FB681B683E
:105880009B687B617B69FB68012283F85120FB6880
:10589000002283F85020FB685B6D002B01D00123B0
:1058A00000E0002318462037BD4680BD80B58AB091
:1058B00000AFF860B9607A607B8001237B62FEF7FD
:1058C0001DF83862FB6893F85130FB77FB685B6822
:1058D000BB617B88FB82FB7F012B0CD0BB69B3F5DE
:1058E000827F06D1FB689B68002B02D1FB7F042BD3
:1058F00001D002237FE1BB68002B05D07B68002B21
:1059000002D07B88002B01D1012374E1FB6893F85E
:105910005030012B01D102236DE1FB68012283F895
:105920005020FB6893F85130DBB2042B03D0FB68A6
:10593000052283F85120FB6800225A65FB687A68CB
:105940009A63FB687A88DA87FB687A889A87FB68AB
:10595000BA681A63FB687A88DA86FB687A889A865E
:10596000FB6800221A64FB6800225A64FB681B680B
:105970001B6803F04003402B07D0FB681B681A68C4
:10598000FB681B6842F040021A60FB68DB68B3F5F5
:10599000006F7ED1FB685B68002B02D0FB8A012B75
:1059A0006CD1FB681B6B1A88FB681B68DA60FB68AC
:1059B0001B6B9A1CFB681A63FB68DB8E9BB2013B76
:1059C0009AB2FB68DA8659E0FB681B689B6803F0B3
:1059D0000203022B1BD1FB68DB8E9BB2002B16D07F
:1059E0007B6A012B13D1FB681B6B1A88FB681B6851
:1059F000DA60FB681B6B9A1CFB681A63FB68DB8E22
:105A00009BB2013B9AB2FB68DA8600237B62FB689B
:105A10001B689B6803F00103012B19D1FB68DB8F26
:105A20009BB2002B14D0FB681B68DA68FB689B6B89
:105A300092B21A80FB689B6B9A1CFB689A63FB68A6
:105A4000DB8F9BB2013B9AB2FB68DA8701237B6252
:105A5000FDF754FF02463B6AD31A3A6B9A420DD8BF
:105A60003B6BB3F1FF3F09D0FB68012283F8512063
:105A7000FB68002283F850200323BCE0FB68DB8E28
:105A80009BB2002BA0D1FB68DB8F9BB2002B9BD17C
:105A900082E0FB685B68002B02D0FB8A012B71D18E
:105AA000FB681A6BFB681B680C3312781A70FB6872
:105AB0001B6B5A1CFB681A63FB68DB8E9BB2013BB5
:105AC0009AB2FB68DA865DE0FB681B689B6803F0AE
:105AD0000203022B1CD1FB68DB8E9BB2002B17D07C
